{
  "abi": [
    {
      "inputs": [],
      "stateMutability": "nonpayable",
      "type": "constructor"
    },
    {
      "anonymous": false,
      "inputs": [
        {
          "indexed": true,
          "internalType": "address",
          "name": "owner",
          "type": "address"
        },
        {
          "indexed": true,
          "internalType": "address",
          "name": "approved",
          "type": "address"
        },
        {
          "indexed": true,
          "internalType": "uint256",
          "name": "tokenId",
          "type": "uint256"
        }
      ],
      "name": "Approval",
      "type": "event"
    },
    {
      "anonymous": false,
      "inputs": [
        {
          "indexed": true,
          "internalType": "address",
          "name": "owner",
          "type": "address"
        },
        {
          "indexed": true,
          "internalType": "address",
          "name": "operator",
          "type": "address"
        },
        {
          "indexed": false,
          "internalType": "bool",
          "name": "approved",
          "type": "bool"
        }
      ],
      "name": "ApprovalForAll",
      "type": "event"
    },
    {
      "anonymous": false,
      "inputs": [
        {
          "indexed": false,
          "internalType": "uint256",
          "name": "newBossHp",
          "type": "uint256"
        },
        {
          "indexed": false,
          "internalType": "uint256",
          "name": "newPlayerHp",
          "type": "uint256"
        },
        {
          "indexed": false,
          "internalType": "uint256",
          "name": "damage",
          "type": "uint256"
        },
        {
          "indexed": false,
          "internalType": "uint8",
          "name": "critChance",
          "type": "uint8"
        }
      ],
      "name": "AttackComplete",
      "type": "event"
    },
    {
      "anonymous": false,
      "inputs": [
        {
          "indexed": false,
          "internalType": "address",
          "name": "sender",
          "type": "address"
        },
        {
          "indexed": false,
          "internalType": "uint256",
          "name": "tokenId",
          "type": "uint256"
        },
        {
          "indexed": false,
          "internalType": "uint256",
          "name": "characterIndex",
          "type": "uint256"
        }
      ],
      "name": "CharacterNFTMinted",
      "type": "event"
    },
    {
      "anonymous": false,
      "inputs": [
        {
          "indexed": false,
          "internalType": "address",
          "name": "sender",
          "type": "address"
        },
        {
          "indexed": false,
          "internalType": "uint256",
          "name": "newPlayerHp",
          "type": "uint256"
        }
      ],
      "name": "ReviveComplete",
      "type": "event"
    },
    {
      "anonymous": false,
      "inputs": [
        {
          "indexed": true,
          "internalType": "address",
          "name": "from",
          "type": "address"
        },
        {
          "indexed": true,
          "internalType": "address",
          "name": "to",
          "type": "address"
        },
        {
          "indexed": true,
          "internalType": "uint256",
          "name": "tokenId",
          "type": "uint256"
        }
      ],
      "name": "Transfer",
      "type": "event"
    },
    {
      "inputs": [
        {
          "internalType": "address",
          "name": "to",
          "type": "address"
        },
        {
          "internalType": "uint256",
          "name": "tokenId",
          "type": "uint256"
        }
      ],
      "name": "approve",
      "outputs": [],
      "stateMutability": "nonpayable",
      "type": "function"
    },
    {
      "inputs": [],
      "name": "attackBoss",
      "outputs": [],
      "stateMutability": "nonpayable",
      "type": "function"
    },
    {
      "inputs": [
        {
          "internalType": "address",
          "name": "owner",
          "type": "address"
        }
      ],
      "name": "balanceOf",
      "outputs": [
        {
          "internalType": "uint256",
          "name": "",
          "type": "uint256"
        }
      ],
      "stateMutability": "view",
      "type": "function"
    },
    {
      "inputs": [],
      "name": "bigBoss",
      "outputs": [
        {
          "internalType": "string",
          "name": "name",
          "type": "string"
        },
        {
          "internalType": "string",
          "name": "imageURI",
          "type": "string"
        },
        {
          "internalType": "uint256",
          "name": "hp",
          "type": "uint256"
        },
        {
          "internalType": "uint256",
          "name": "maxHp",
          "type": "uint256"
        },
        {
          "internalType": "uint256",
          "name": "attackDamage",
          "type": "uint256"
        }
      ],
      "stateMutability": "view",
      "type": "function"
    },
    {
      "inputs": [
        {
          "internalType": "uint256",
          "name": "tokenId",
          "type": "uint256"
        }
      ],
      "name": "getApproved",
      "outputs": [
        {
          "internalType": "address",
          "name": "",
          "type": "address"
        }
      ],
      "stateMutability": "view",
      "type": "function"
    },
    {
      "inputs": [],
      "name": "getBigBoss",
      "outputs": [
        {
          "components": [
            {
              "internalType": "string",
              "name": "name",
              "type": "string"
            },
            {
              "internalType": "string",
              "name": "imageURI",
              "type": "string"
            },
            {
              "internalType": "uint256",
              "name": "hp",
              "type": "uint256"
            },
            {
              "internalType": "uint256",
              "name": "maxHp",
              "type": "uint256"
            },
            {
              "internalType": "uint256",
              "name": "attackDamage",
              "type": "uint256"
            }
          ],
          "internalType": "struct EpicGame.BigBoss",
          "name": "",
          "type": "tuple"
        }
      ],
      "stateMutability": "view",
      "type": "function"
    },
    {
      "inputs": [],
      "name": "getDefaultCharacters",
      "outputs": [
        {
          "components": [
            {
              "internalType": "uint256",
              "name": "characterIndex",
              "type": "uint256"
            },
            {
              "internalType": "string",
              "name": "name",
              "type": "string"
            },
            {
              "internalType": "string",
              "name": "imageURI",
              "type": "string"
            },
            {
              "internalType": "uint256",
              "name": "hp",
              "type": "uint256"
            },
            {
              "internalType": "uint256",
              "name": "maxHp",
              "type": "uint256"
            },
            {
              "internalType": "uint256",
              "name": "attackDamage",
              "type": "uint256"
            }
          ],
          "internalType": "struct EpicGame.CharacterAttributes[]",
          "name": "",
          "type": "tuple[]"
        }
      ],
      "stateMutability": "view",
      "type": "function"
    },
    {
      "inputs": [
        {
          "internalType": "address",
          "name": "_user",
          "type": "address"
        }
      ],
      "name": "getUserNFT",
      "outputs": [
        {
          "components": [
            {
              "internalType": "uint256",
              "name": "characterIndex",
              "type": "uint256"
            },
            {
              "internalType": "string",
              "name": "name",
              "type": "string"
            },
            {
              "internalType": "string",
              "name": "imageURI",
              "type": "string"
            },
            {
              "internalType": "uint256",
              "name": "hp",
              "type": "uint256"
            },
            {
              "internalType": "uint256",
              "name": "maxHp",
              "type": "uint256"
            },
            {
              "internalType": "uint256",
              "name": "attackDamage",
              "type": "uint256"
            }
          ],
          "internalType": "struct EpicGame.CharacterAttributes",
          "name": "",
          "type": "tuple"
        }
      ],
      "stateMutability": "view",
      "type": "function"
    },
    {
      "inputs": [
        {
          "components": [
            {
              "internalType": "string",
              "name": "name",
              "type": "string"
            },
            {
              "internalType": "string",
              "name": "imageURI",
              "type": "string"
            },
            {
              "internalType": "uint256",
              "name": "hp",
              "type": "uint256"
            },
            {
              "internalType": "uint256",
              "name": "maxHp",
              "type": "uint256"
            },
            {
              "internalType": "uint256",
              "name": "attackDamage",
              "type": "uint256"
            }
          ],
          "internalType": "struct EpicGame.BigBoss",
          "name": "boss",
          "type": "tuple"
        }
      ],
      "name": "initBoss",
      "outputs": [],
      "stateMutability": "nonpayable",
      "type": "function"
    },
    {
      "inputs": [
        {
          "components": [
            {
              "internalType": "uint256",
              "name": "characterIndex",
              "type": "uint256"
            },
            {
              "internalType": "string",
              "name": "name",
              "type": "string"
            },
            {
              "internalType": "string",
              "name": "imageURI",
              "type": "string"
            },
            {
              "internalType": "uint256",
              "name": "hp",
              "type": "uint256"
            },
            {
              "internalType": "uint256",
              "name": "maxHp",
              "type": "uint256"
            },
            {
              "internalType": "uint256",
              "name": "attackDamage",
              "type": "uint256"
            }
          ],
          "internalType": "struct EpicGame.CharacterAttributes[]",
          "name": "characters",
          "type": "tuple[]"
        }
      ],
      "name": "initDefaultCharacters",
      "outputs": [],
      "stateMutability": "nonpayable",
      "type": "function"
    },
    {
      "inputs": [
        {
          "internalType": "address",
          "name": "owner",
          "type": "address"
        },
        {
          "internalType": "address",
          "name": "operator",
          "type": "address"
        }
      ],
      "name": "isApprovedForAll",
      "outputs": [
        {
          "internalType": "bool",
          "name": "",
          "type": "bool"
        }
      ],
      "stateMutability": "view",
      "type": "function"
    },
    {
      "inputs": [
        {
          "internalType": "address",
          "name": "_user",
          "type": "address"
        }
      ],
      "name": "isUserHasNFT",
      "outputs": [
        {
          "internalType": "bool",
          "name": "",
          "type": "bool"
        }
      ],
      "stateMutability": "view",
      "type": "function"
    },
    {
      "inputs": [
        {
          "internalType": "uint256",
          "name": "_characterIndex",
          "type": "uint256"
        }
      ],
      "name": "mintCharacterNFT",
      "outputs": [],
      "stateMutability": "nonpayable",
      "type": "function"
    },
    {
      "inputs": [],
      "name": "name",
      "outputs": [
        {
          "internalType": "string",
          "name": "",
          "type": "string"
        }
      ],
      "stateMutability": "view",
      "type": "function"
    },
    {
      "inputs": [
        {
          "internalType": "uint256",
          "name": "",
          "type": "uint256"
        }
      ],
      "name": "nftHolderAttributes",
      "outputs": [
        {
          "internalType": "uint256",
          "name": "characterIndex",
          "type": "uint256"
        },
        {
          "internalType": "string",
          "name": "name",
          "type": "string"
        },
        {
          "internalType": "string",
          "name": "imageURI",
          "type": "string"
        },
        {
          "internalType": "uint256",
          "name": "hp",
          "type": "uint256"
        },
        {
          "internalType": "uint256",
          "name": "maxHp",
          "type": "uint256"
        },
        {
          "internalType": "uint256",
          "name": "attackDamage",
          "type": "uint256"
        }
      ],
      "stateMutability": "view",
      "type": "function"
    },
    {
      "inputs": [
        {
          "internalType": "address",
          "name": "",
          "type": "address"
        }
      ],
      "name": "nftHolders",
      "outputs": [
        {
          "internalType": "uint256",
          "name": "",
          "type": "uint256"
        }
      ],
      "stateMutability": "view",
      "type": "function"
    },
    {
      "inputs": [],
      "name": "owner",
      "outputs": [
        {
          "internalType": "address",
          "name": "",
          "type": "address"
        }
      ],
      "stateMutability": "view",
      "type": "function"
    },
    {
      "inputs": [
        {
          "internalType": "uint256",
          "name": "tokenId",
          "type": "uint256"
        }
      ],
      "name": "ownerOf",
      "outputs": [
        {
          "internalType": "address",
          "name": "",
          "type": "address"
        }
      ],
      "stateMutability": "view",
      "type": "function"
    },
    {
      "inputs": [],
      "name": "random",
      "outputs": [
        {
          "internalType": "uint256",
          "name": "",
          "type": "uint256"
        }
      ],
      "stateMutability": "view",
      "type": "function"
    },
    {
      "inputs": [],
      "name": "revive",
      "outputs": [],
      "stateMutability": "nonpayable",
      "type": "function"
    },
    {
      "inputs": [],
      "name": "reviveBigBoss",
      "outputs": [],
      "stateMutability": "nonpayable",
      "type": "function"
    },
    {
      "inputs": [
        {
          "internalType": "address",
          "name": "from",
          "type": "address"
        },
        {
          "internalType": "address",
          "name": "to",
          "type": "address"
        },
        {
          "internalType": "uint256",
          "name": "tokenId",
          "type": "uint256"
        }
      ],
      "name": "safeTransferFrom",
      "outputs": [],
      "stateMutability": "nonpayable",
      "type": "function"
    },
    {
      "inputs": [
        {
          "internalType": "address",
          "name": "from",
          "type": "address"
        },
        {
          "internalType": "address",
          "name": "to",
          "type": "address"
        },
        {
          "internalType": "uint256",
          "name": "tokenId",
          "type": "uint256"
        },
        {
          "internalType": "bytes",
          "name": "_data",
          "type": "bytes"
        }
      ],
      "name": "safeTransferFrom",
      "outputs": [],
      "stateMutability": "nonpayable",
      "type": "function"
    },
    {
      "inputs": [
        {
          "internalType": "address",
          "name": "operator",
          "type": "address"
        },
        {
          "internalType": "bool",
          "name": "approved",
          "type": "bool"
        }
      ],
      "name": "setApprovalForAll",
      "outputs": [],
      "stateMutability": "nonpayable",
      "type": "function"
    },
    {
      "inputs": [
        {
          "internalType": "bytes4",
          "name": "interfaceId",
          "type": "bytes4"
        }
      ],
      "name": "supportsInterface",
      "outputs": [
        {
          "internalType": "bool",
          "name": "",
          "type": "bool"
        }
      ],
      "stateMutability": "view",
      "type": "function"
    },
    {
      "inputs": [],
      "name": "symbol",
      "outputs": [
        {
          "internalType": "string",
          "name": "",
          "type": "string"
        }
      ],
      "stateMutability": "view",
      "type": "function"
    },
    {
      "inputs": [
        {
          "internalType": "uint256",
          "name": "_tokenId",
          "type": "uint256"
        }
      ],
      "name": "tokenURI",
      "outputs": [
        {
          "internalType": "string",
          "name": "",
          "type": "string"
        }
      ],
      "stateMutability": "view",
      "type": "function"
    },
    {
      "inputs": [
        {
          "internalType": "address",
          "name": "from",
          "type": "address"
        },
        {
          "internalType": "address",
          "name": "to",
          "type": "address"
        },
        {
          "internalType": "uint256",
          "name": "tokenId",
          "type": "uint256"
        }
      ],
      "name": "transferFrom",
      "outputs": [],
      "stateMutability": "nonpayable",
      "type": "function"
    }
  ],
  "bytecode": "60806040523480156200001157600080fd5b50604051806040016040528060078152602001662837b5b2b6b7b760c91b815250604051806040016040528060078152602001662827a5a2a6a7a760c91b81525081600090805190602001906200006a929190620000be565b50805162000080906001906020840190620000be565b505060078054336001600160a01b031990911617905550620000af6006620000b5602090811b62001c6317901c565b620001a1565b80546001019055565b828054620000cc9062000164565b90600052602060002090601f016020900481019282620000f057600085556200013b565b82601f106200010b57805160ff19168380011785556200013b565b828001600101855582156200013b579182015b828111156200013b5782518255916020019190600101906200011e565b50620001499291506200014d565b5090565b5b808211156200014957600081556001016200014e565b600181811c908216806200017957607f821691505b602082108114156200019b57634e487b7160e01b600052602260045260246000fd5b50919050565b61314780620001b16000396000f3fe608060405234801561001057600080fd5b50600436106101c45760003560e01c806381f64492116100f9578063b88d4fde11610097578063d4f24c5b11610071578063d4f24c5b146103cd578063e985e9c5146103d5578063f8b81ef714610411578063fe59d5541461042457600080fd5b8063b88d4fde14610394578063c87b56dd146103a7578063cd7cd41b146103ba57600080fd5b806395d89b41116100d357806395d89b411461033b57806398da4c9514610343578063a22cb46514610368578063a9c326791461037b57600080fd5b806381f64492146103185780638da5cb5b1461032057806395851a651461033357600080fd5b806342842e0e1161016657806370a082311161014057806370a08231146102bd57806374bce80a146102d05780637dae379f146102e55780637df124a1146102f857600080fd5b806342842e0e146102815780635ec01e4d146102945780636352211e146102aa57600080fd5b8063081812fc116101a2578063081812fc1461021b578063095ea7b31461024657806323b872dd1461025b5780632498b5ff1461026e57600080fd5b806301ffc9a7146101c95780630665f961146101f157806306fdde0314610206575b600080fd5b6101dc6101d73660046125b4565b610444565b60405190151581526020015b60405180910390f35b6101f9610496565b6040516101e89190612629565b61020e61061c565b6040516101e8919061268d565b61022e6102293660046126a0565b6106ae565b6040516001600160a01b0390911681526020016101e8565b6102596102543660046126d5565b610748565b005b6102596102693660046126ff565b61085e565b61025961027c366004612846565b61088f565b61025961028f3660046126ff565b610a32565b61029c610a4d565b6040519081526020016101e8565b61022e6102b83660046126a0565b610a89565b61029c6102cb366004612993565b610b00565b6102d8610b87565b6040516101e89190612a11565b6102596102f3366004612a73565b610d32565b61029c610306366004612993565b60116020526000908152604090205481565b610259610de5565b60075461022e906001600160a01b031681565b610259610e84565b61020e610f9d565b6103566103513660046126a0565b610fac565b6040516101e896959493929190612b25565b610259610376366004612b6f565b6110f1565b6103836111b6565b6040516101e8959493929190612bab565b6102596103a2366004612bee565b6112e8565b61020e6103b53660046126a0565b611320565b6101dc6103c8366004612993565b611531565b610259611562565b6101dc6103e3366004612c6a565b6001600160a01b03918216600090815260056020908152604080832093909416825291909152205460ff1690565b61025961041f3660046126a0565b611732565b610437610432366004612993565b611a53565b6040516101e89190612c9d565b60006001600160e01b031982166380ac58cd60e01b148061047557506001600160e01b03198216635b5e139f60e01b145b8061049057506301ffc9a760e01b6001600160e01b03198316145b92915050565b6104c86040518060a0016040528060608152602001606081526020016000815260200160008152602001600081525090565b60086040518060a00160405290816000820180546104e590612cb0565b80601f016020809104026020016040519081016040528092919081815260200182805461051190612cb0565b801561055e5780601f106105335761010080835404028352916020019161055e565b820191906000526020600020905b81548152906001019060200180831161054157829003601f168201915b5050505050815260200160018201805461057790612cb0565b80601f01602080910402602001604051908101604052809291908181526020018280546105a390612cb0565b80156105f05780601f106105c5576101008083540402835291602001916105f0565b820191906000526020600020905b8154815290600101906020018083116105d357829003601f168201915b505050505081526020016002820154815260200160038201548152602001600482015481525050905090565b60606000805461062b90612cb0565b80601f016020809104026020016040519081016040528092919081815260200182805461065790612cb0565b80156106a45780601f10610679576101008083540402835291602001916106a4565b820191906000526020600020905b81548152906001019060200180831161068757829003601f168201915b5050505050905090565b6000818152600260205260408120546001600160a01b031661072c5760405162461bcd60e51b815260206004820152602c60248201527f4552433732313a20617070726f76656420717565727920666f72206e6f6e657860448201526b34b9ba32b73a103a37b5b2b760a11b60648201526084015b60405180910390fd5b506000908152600460205260409020546001600160a01b031690565b600061075382610a89565b9050806001600160a01b0316836001600160a01b031614156107c15760405162461bcd60e51b815260206004820152602160248201527f4552433732313a20617070726f76616c20746f2063757272656e74206f776e656044820152603960f91b6064820152608401610723565b336001600160a01b03821614806107dd57506107dd81336103e3565b61084f5760405162461bcd60e51b815260206004820152603860248201527f4552433732313a20617070726f76652063616c6c6572206973206e6f74206f7760448201527f6e6572206e6f7220617070726f76656420666f7220616c6c00000000000000006064820152608401610723565b6108598383611c6c565b505050565b6108683382611cda565b6108845760405162461bcd60e51b815260040161072390612ce5565b610859838383611dd1565b6007546001600160a01b031633146108b95760405162461bcd60e51b815260040161072390612d36565b60005b8151811015610a2e57600f6040518060c001604052808484815181106108e4576108e4612d65565b602002602001015160000151815260200184848151811061090757610907612d65565b602002602001015160200151815260200184848151811061092a5761092a612d65565b602002602001015160400151815260200184848151811061094d5761094d612d65565b602002602001015160600151815260200184848151811061097057610970612d65565b602002602001015160800151815260200184848151811061099357610993612d65565b60209081029190910181015160a001519091528254600181810185556000948552938290208351600690920201908155828201518051939491936109df93928501929190910190612502565b50604082015180516109fb916002840191602090910190612502565b50606082015160038201556080820151600482015560a090910151600590910155610a27600182612d91565b90506108bc565b5050565b610859838383604051806020016040528060008152506112e8565b60004442604051602001610a6b929190918252602082015260400190565b6040516020818303038152906040528051906020012060001c905090565b6000818152600260205260408120546001600160a01b0316806104905760405162461bcd60e51b815260206004820152602960248201527f4552433732313a206f776e657220717565727920666f72206e6f6e657869737460448201526832b73a103a37b5b2b760b91b6064820152608401610723565b60006001600160a01b038216610b6b5760405162461bcd60e51b815260206004820152602a60248201527f4552433732313a2062616c616e636520717565727920666f7220746865207a65604482015269726f206164647265737360b01b6064820152608401610723565b506001600160a01b031660009081526003602052604090205490565b6060600f805480602002602001604051908101604052809291908181526020016000905b82821015610d2957838290600052602060002090600602016040518060c001604052908160008201548152602001600182018054610be890612cb0565b80601f0160208091040260200160405190810160405280929190818152602001828054610c1490612cb0565b8015610c615780601f10610c3657610100808354040283529160200191610c61565b820191906000526020600020905b815481529060010190602001808311610c4457829003601f168201915b50505050508152602001600282018054610c7a90612cb0565b80601f0160208091040260200160405190810160405280929190818152602001828054610ca690612cb0565b8015610cf35780601f10610cc857610100808354040283529160200191610cf3565b820191906000526020600020905b815481529060010190602001808311610cd657829003601f168201915b50505050508152602001600382015481526020016004820154815260200160058201548152505081526020019060010190610bab565b50505050905090565b6007546001600160a01b03163314610d5c5760405162461bcd60e51b815260040161072390612d36565b6040805160a0810182528251808252602080850151818401528484015193830193909352606080850151908301526080808501519083015280519192600892610da89284920190612502565b506020828101518051610dc19260018501920190612502565b50604082015160028201556060820151600382015560809091015160049091015550565b6007546001600160a01b03163314610e0f5760405162461bcd60e51b815260040161072390612d36565b600a5415610e5f5760405162461bcd60e51b815260206004820152601b60248201527f43616e6e6f742072657669766520616e20616c69766520426f737300000000006044820152606401610723565b600b54610e6e90600290612dbf565b600a55600c54610e7f906002612dd3565b600c55565b610e8d33611531565b1515600114610ed75760405162461bcd60e51b8152602060048201526016602482015275596f75277265206e6f742074686520706c617965722160501b6044820152606401610723565b336000908152601160209081526040808320548084526010909252909120600381015415610f475760405162461bcd60e51b815260206004820152601a60248201527f43616e6e6f742072657669766520616e20616c697665204e46540000000000006044820152606401610723565b60028160040154610f589190612dbf565b600382018190556040805133815260208101929092527fe64b52b2cc92b4080b3706b7b810bca4fe3002c44d8432d66d935711f8753e4c910160405180910390a15050565b60606001805461062b90612cb0565b60106020526000908152604090208054600182018054919291610fce90612cb0565b80601f0160208091040260200160405190810160405280929190818152602001828054610ffa90612cb0565b80156110475780601f1061101c57610100808354040283529160200191611047565b820191906000526020600020905b81548152906001019060200180831161102a57829003601f168201915b50505050509080600201805461105c90612cb0565b80601f016020809104026020016040519081016040528092919081815260200182805461108890612cb0565b80156110d55780601f106110aa576101008083540402835291602001916110d5565b820191906000526020600020905b8154815290600101906020018083116110b857829003601f168201915b5050505050908060030154908060040154908060050154905086565b6001600160a01b03821633141561114a5760405162461bcd60e51b815260206004820152601960248201527f4552433732313a20617070726f766520746f2063616c6c6572000000000000006044820152606401610723565b3360008181526005602090815260408083206001600160a01b03871680855290835292819020805460ff191686151590811790915590519081529192917f17307eab39ab6107e8899845ad3d59bd9653f200f220920489ca2b5937696c31910160405180910390a35050565b6008805481906111c590612cb0565b80601f01602080910402602001604051908101604052809291908181526020018280546111f190612cb0565b801561123e5780601f106112135761010080835404028352916020019161123e565b820191906000526020600020905b81548152906001019060200180831161122157829003601f168201915b50505050509080600101805461125390612cb0565b80601f016020809104026020016040519081016040528092919081815260200182805461127f90612cb0565b80156112cc5780601f106112a1576101008083540402835291602001916112cc565b820191906000526020600020905b8154815290600101906020018083116112af57829003601f168201915b5050505050908060020154908060030154908060040154905085565b6112f23383611cda565b61130e5760405162461bcd60e51b815260040161072390612ce5565b61131a84848484611f71565b50505050565b6000818152601060209081526040808320815160c0810190925280548252600181018054606095948401919061135590612cb0565b80601f016020809104026020016040519081016040528092919081815260200182805461138190612cb0565b80156113ce5780601f106113a3576101008083540402835291602001916113ce565b820191906000526020600020905b8154815290600101906020018083116113b157829003601f168201915b505050505081526020016002820180546113e790612cb0565b80601f016020809104026020016040519081016040528092919081815260200182805461141390612cb0565b80156114605780601f1061143557610100808354040283529160200191611460565b820191906000526020600020905b81548152906001019060200180831161144357829003601f168201915b505050505081526020016003820154815260200160048201548152602001600582015481525050905060006114988260600151611fa4565b905060006114a98360800151611fa4565b905060006114ba8460a00151611fa4565b9050600061150085602001516114cf89611fa4565b87604001518787876040516020016114ec96959493929190612e0e565b6040516020818303038152906040526120a2565b90506000816040516020016115159190612f9a565b60408051601f1981840301815291905298975050505050505050565b6001600160a01b03811660009081526011602052604081205480156115595750600192915050565b50600092915050565b61156b33611531565b15156001146115b55760405162461bcd60e51b8152602060048201526016602482015275596f75277265206e6f742074686520706c617965722160501b6044820152606401610723565b336000908152601160209081526040808320548084526010909252909120600381015461161c5760405162461bcd60e51b81526020600482015260156024820152741c1b185e595c881a185cc81b9bc81214081b19599d605a1b6044820152606401610723565b600a5461166b5760405162461bcd60e51b815260206004820152601860248201527f42696720426f737320697320616c7265616479206465616400000000000000006044820152606401610723565b60008061167b8360050154612208565b91509150816008600201541015611696576000600a556116a8565b600a546116a4908390612fdf565b600a555b600c54600384015410156116c257600060038401556116da565b600c5460038401546116d49190612fdf565b60038401555b600a546003840154604080519283526020830191909152810183905260ff821660608201527f893bbcfc9baf7eb2b76a5a971ee475da464aeb53ab5eacc729ab09ea477c477b9060800160405180910390a150505050565b61173b33611531565b156117815760405162461bcd60e51b8152602060048201526016602482015275155cd95c88185b1c9958591e481a185cc8184813919560521b6044820152606401610723565b600061178c60065490565b90506117983382612275565b6040518060c00160405280838152602001600f84815481106117bc576117bc612d65565b906000526020600020906006020160010180546117d890612cb0565b80601f016020809104026020016040519081016040528092919081815260200182805461180490612cb0565b80156118515780601f1061182657610100808354040283529160200191611851565b820191906000526020600020905b81548152906001019060200180831161183457829003601f168201915b50505050508152602001600f848154811061186e5761186e612d65565b9060005260206000209060060201600201805461188a90612cb0565b80601f01602080910402602001604051908101604052809291908181526020018280546118b690612cb0565b80156119035780601f106118d857610100808354040283529160200191611903565b820191906000526020600020905b8154815290600101906020018083116118e657829003601f168201915b50505050508152602001600f848154811061192057611920612d65565b9060005260206000209060060201600301548152602001600f848154811061194a5761194a612d65565b9060005260206000209060060201600401548152602001600f848154811061197457611974612d65565b600091825260208083206005600690930201919091015490925283815260108252604090208251815582820151805191926119b792600185019290910190612502565b50604082015180516119d3916002840191602090910190612502565b5060608281015160038301556080830151600483015560a090920151600590910155336000818152601160209081526040918290208590558151928352820184905281018490527f4bc303fd457a97b4691b9af582ce71868a3d258638c8d4f8c60988a0f0bfb8cd910160405180910390a1610a2e600680546001019055565b611a8c6040518060c001604052806000815260200160608152602001606081526020016000815260200160008152602001600081525090565b6001600160a01b0382166000908152601160205260409020548015611c1d57601060008281526020019081526020016000206040518060c001604052908160008201548152602001600182018054611ae390612cb0565b80601f0160208091040260200160405190810160405280929190818152602001828054611b0f90612cb0565b8015611b5c5780601f10611b3157610100808354040283529160200191611b5c565b820191906000526020600020905b815481529060010190602001808311611b3f57829003601f168201915b50505050508152602001600282018054611b7590612cb0565b80601f0160208091040260200160405190810160405280929190818152602001828054611ba190612cb0565b8015611bee5780601f10611bc357610100808354040283529160200191611bee565b820191906000526020600020905b815481529060010190602001808311611bd157829003601f168201915b505050505081526020016003820154815260200160048201548152602001600582015481525050915050919050565b611c566040518060c001604052806000815260200160608152602001606081526020016000815260200160008152602001600081525090565b9392505050565b50919050565b80546001019055565b600081815260046020526040902080546001600160a01b0319166001600160a01b0384169081179091558190611ca182610a89565b6001600160a01b03167f8c5be1e5ebec7d5bd14f71427d1e84f3dd0314c0f7b2291e5b200ac8c7c3b92560405160405180910390a45050565b6000818152600260205260408120546001600160a01b0316611d535760405162461bcd60e51b815260206004820152602c60248201527f4552433732313a206f70657261746f7220717565727920666f72206e6f6e657860448201526b34b9ba32b73a103a37b5b2b760a11b6064820152608401610723565b6000611d5e83610a89565b9050806001600160a01b0316846001600160a01b03161480611d995750836001600160a01b0316611d8e846106ae565b6001600160a01b0316145b80611dc957506001600160a01b0380821660009081526005602090815260408083209388168352929052205460ff165b949350505050565b826001600160a01b0316611de482610a89565b6001600160a01b031614611e4c5760405162461bcd60e51b815260206004820152602960248201527f4552433732313a207472616e73666572206f6620746f6b656e2074686174206960448201526839903737ba1037bbb760b91b6064820152608401610723565b6001600160a01b038216611eae5760405162461bcd60e51b8152602060048201526024808201527f4552433732313a207472616e7366657220746f20746865207a65726f206164646044820152637265737360e01b6064820152608401610723565b611eb9600082611c6c565b6001600160a01b0383166000908152600360205260408120805460019290611ee2908490612fdf565b90915550506001600160a01b0382166000908152600360205260408120805460019290611f10908490612d91565b909155505060008181526002602052604080822080546001600160a01b0319166001600160a01b0386811691821790925591518493918716917fddf252ad1be2c89b69c2b068fc378daa952ba7f163c4a11628f55a4df523b3ef91a4505050565b611f7c848484611dd1565b611f888484848461228f565b61131a5760405162461bcd60e51b815260040161072390612ff6565b606081611fc85750506040805180820190915260018152600360fc1b602082015290565b8160005b8115611ff25780611fdc81613048565b9150611feb9050600a83612dbf565b9150611fcc565b60008167ffffffffffffffff81111561200d5761200d61273b565b6040519080825280601f01601f191660200182016040528015612037576020820181803683370190505b5090505b8415611dc95761204c600183612fdf565b9150612059600a86613063565b612064906030612d91565b60f81b81838151811061207957612079612d65565b60200101906001600160f81b031916908160001a90535061209b600a86612dbf565b945061203b565b8051606090806120c2575050604080516020810190915260008152919050565b600060036120d1836002612d91565b6120db9190612dbf565b6120e6906004612dd3565b905060006120f5826020612d91565b67ffffffffffffffff81111561210d5761210d61273b565b6040519080825280601f01601f191660200182016040528015612137576020820181803683370190505b50905060006040518060600160405280604081526020016130d2604091399050600181016020830160005b868110156121c3576003818a01810151603f601282901c8116860151600c83901c8216870151600684901c831688015192909316870151600891821b60ff94851601821b92841692909201901b91160160e01b835260049092019101612162565b5060038606600181146121dd57600281146121ee576121fa565b613d3d60f01b6001198301526121fa565b603d60f81b6000198301525b505050918152949350505050565b6000806000600a612217610a4d565b6122219190613063565b905083600860ff8316106122415761223a856003612dd3565b905061226c565b60058260ff1610158015612259575060078260ff1611155b1561226c57612269856002612dd3565b90505b94909350915050565b610a2e82826040518060200160405280600081525061238d565b60006001600160a01b0384163b1561238257604051630a85bd0160e11b81526001600160a01b0385169063150b7a02906122d3903390899088908890600401613077565b6020604051808303816000875af192505050801561230e575060408051601f3d908101601f1916820190925261230b918101906130b4565b60015b612368573d80801561233c576040519150601f19603f3d011682016040523d82523d6000602084013e612341565b606091505b5080516123605760405162461bcd60e51b815260040161072390612ff6565b805181602001fd5b6001600160e01b031916630a85bd0160e11b149050611dc9565b506001949350505050565b61239783836123c0565b6123a4600084848461228f565b6108595760405162461bcd60e51b815260040161072390612ff6565b6001600160a01b0382166124165760405162461bcd60e51b815260206004820181905260248201527f4552433732313a206d696e7420746f20746865207a65726f20616464726573736044820152606401610723565b6000818152600260205260409020546001600160a01b03161561247b5760405162461bcd60e51b815260206004820152601c60248201527f4552433732313a20746f6b656e20616c7265616479206d696e746564000000006044820152606401610723565b6001600160a01b03821660009081526003602052604081208054600192906124a4908490612d91565b909155505060008181526002602052604080822080546001600160a01b0319166001600160a01b03861690811790915590518392907fddf252ad1be2c89b69c2b068fc378daa952ba7f163c4a11628f55a4df523b3ef908290a45050565b82805461250e90612cb0565b90600052602060002090601f0160209004810192826125305760008555612576565b82601f1061254957805160ff1916838001178555612576565b82800160010185558215612576579182015b8281111561257657825182559160200191906001019061255b565b50612582929150612586565b5090565b5b808211156125825760008155600101612587565b6001600160e01b0319811681146125b157600080fd5b50565b6000602082840312156125c657600080fd5b8135611c568161259b565b60005b838110156125ec5781810151838201526020016125d4565b8381111561131a5750506000910152565b600081518084526126158160208601602086016125d1565b601f01601f19169290920160200192915050565b602081526000825160a0602084015261264560c08401826125fd565b90506020840151601f1984830301604085015261266282826125fd565b9150506040840151606084015260608401516080840152608084015160a08401528091505092915050565b602081526000611c5660208301846125fd565b6000602082840312156126b257600080fd5b5035919050565b80356001600160a01b03811681146126d057600080fd5b919050565b600080604083850312156126e857600080fd5b6126f1836126b9565b946020939093013593505050565b60008060006060848603121561271457600080fd5b61271d846126b9565b925061272b602085016126b9565b9150604084013590509250925092565b634e487b7160e01b600052604160045260246000fd5b60405160c0810167ffffffffffffffff811182821017156127745761277461273b565b60405290565b60405160a0810167ffffffffffffffff811182821017156127745761277461273b565b604051601f8201601f1916810167ffffffffffffffff811182821017156127c6576127c661273b565b604052919050565b600067ffffffffffffffff8311156127e8576127e861273b565b6127fb601f8401601f191660200161279d565b905082815283838301111561280f57600080fd5b828260208301376000602084830101529392505050565b600082601f83011261283757600080fd5b611c56838335602085016127ce565b6000602080838503121561285957600080fd5b823567ffffffffffffffff8082111561287157600080fd5b818501915085601f83011261288557600080fd5b8135818111156128975761289761273b565b8060051b6128a685820161279d565b91825283810185019185810190898411156128c057600080fd5b86860192505b83831015612986578235858111156128dd57600080fd5b860160c0818c03601f190112156128f45760008081fd5b6128fc612751565b888201358152604080830135888111156129165760008081fd5b6129248e8c83870101612826565b8b840152506060808401358981111561293d5760008081fd5b61294b8f8d83880101612826565b83850152506080915081840135818401525060a0808401358284015260c08401358184015250508084525050868201915086830192506128c6565b9998505050505050505050565b6000602082840312156129a557600080fd5b611c56826126b9565b805182526000602082015160c060208501526129cd60c08501826125fd565b9050604083015184820360408601526129e682826125fd565b915050606083015160608501526080830151608085015260a083015160a08501528091505092915050565b6000602080830181845280855180835260408601915060408160051b870101925083870160005b82811015612a6657603f19888603018452612a548583516129ae565b94509285019290850190600101612a38565b5092979650505050505050565b600060208284031215612a8557600080fd5b813567ffffffffffffffff80821115612a9d57600080fd5b9083019060a08286031215612ab157600080fd5b612ab961277a565b823582811115612ac857600080fd5b612ad487828601612826565b825250602083013582811115612ae957600080fd5b612af587828601612826565b60208301525060408301356040820152606083013560608201526080830135608082015280935050505092915050565b86815260c060208201526000612b3e60c08301886125fd565b8281036040840152612b5081886125fd565b60608401969096525050608081019290925260a0909101529392505050565b60008060408385031215612b8257600080fd5b612b8b836126b9565b915060208301358015158114612ba057600080fd5b809150509250929050565b60a081526000612bbe60a08301886125fd565b8281036020840152612bd081886125fd565b60408401969096525050606081019290925260809091015292915050565b60008060008060808587031215612c0457600080fd5b612c0d856126b9565b9350612c1b602086016126b9565b925060408501359150606085013567ffffffffffffffff811115612c3e57600080fd5b8501601f81018713612c4f57600080fd5b612c5e878235602084016127ce565b91505092959194509250565b60008060408385031215612c7d57600080fd5b612c86836126b9565b9150612c94602084016126b9565b90509250929050565b602081526000611c5660208301846129ae565b600181811c90821680612cc457607f821691505b60208210811415611c5d57634e487b7160e01b600052602260045260246000fd5b60208082526031908201527f4552433732313a207472616e736665722063616c6c6572206973206e6f74206f6040820152701ddb995c881b9bdc88185c1c1c9bdd9959607a1b606082015260800190565b6020808252601590820152742cb7ba9030b932903737ba103a34329037bbb732b960591b604082015260600190565b634e487b7160e01b600052603260045260246000fd5b634e487b7160e01b600052601160045260246000fd5b60008219821115612da457612da4612d7b565b500190565b634e487b7160e01b600052601260045260246000fd5b600082612dce57612dce612da9565b500490565b6000816000190483118215151615612ded57612ded612d7b565b500290565b60008151612e048185602086016125d1565b9290920192915050565b693d913730b6b2911d101160b11b81528651600090612e3481600a850160208c016125d1565b6a01016969027232a10119d160ad1b600a918401918201528751612e5f816015840160208c016125d1565b7f222c20226465736372697074696f6e223a2022416e2065706963204e4654222c60159290910191820152712022696d616765223a2022697066733a2f2f60701b60358201528651612eb8816047840160208b016125d1565b7f222c202261747472696275746573223a205b207b202274726169745f74797065604792909101918201527f223a20224865616c746820506f696e7473222c202276616c7565223a200000006067820152612986612f8a612f84612f45612f3f612f25608487018c612df2565b6d16101136b0bc2fbb30b63ab2911d60911b8152600e0190565b89612df2565b7f7d2c207b202274726169745f74797065223a202241747461636b2044616d616781526c032911610113b30b63ab2911d1609d1b6020820152602d0190565b86612df2565b637d205d7d60e01b815260040190565b7f646174613a6170706c69636174696f6e2f6a736f6e3b6261736536342c000000815260008251612fd281601d8501602087016125d1565b91909101601d0192915050565b600082821015612ff157612ff1612d7b565b500390565b60208082526032908201527f4552433732313a207472616e7366657220746f206e6f6e20455243373231526560408201527131b2b4bb32b91034b6b83632b6b2b73a32b960711b606082015260800190565b600060001982141561305c5761305c612d7b565b5060010190565b60008261307257613072612da9565b500690565b6001600160a01b03858116825284166020820152604081018390526080606082018190526000906130aa908301846125fd565b9695505050505050565b6000602082840312156130c657600080fd5b8151611c568161259b56fe4142434445464748494a4b4c4d4e4f505152535455565758595a6162636465666768696a6b6c6d6e6f707172737475767778797a303132333435363738392b2fa264697066735822122099ad0a0c93e7c60c951e91c618691cd35090a881cf7aa76a12b2b918d948419764736f6c634300080b0033",
  "bytecodeSha1": "b8f79cf684dceb8d92d781ce9af24a7a8ae09423",
  "compiler": {
    "evm_version": "istanbul",
    "optimizer": {
      "enabled": true,
      "runs": 200
    },
    "version": "0.8.11+commit.d7f03943"
  },
  "contractName": "EpicGame",
  "language": "Solidity",
  "natspec": {
    "kind": "dev",
    "methods": {
      "approve(address,uint256)": {
        "details": "See {IERC721-approve}."
      },
      "balanceOf(address)": {
        "details": "See {IERC721-balanceOf}."
      },
      "getApproved(uint256)": {
        "details": "See {IERC721-getApproved}."
      },
      "isApprovedForAll(address,address)": {
        "details": "See {IERC721-isApprovedForAll}."
      },
      "name()": {
        "details": "See {IERC721Metadata-name}."
      },
      "ownerOf(uint256)": {
        "details": "See {IERC721-ownerOf}."
      },
      "safeTransferFrom(address,address,uint256)": {
        "details": "See {IERC721-safeTransferFrom}."
      },
      "safeTransferFrom(address,address,uint256,bytes)": {
        "details": "See {IERC721-safeTransferFrom}."
      },
      "setApprovalForAll(address,bool)": {
        "details": "See {IERC721-setApprovalForAll}."
      },
      "supportsInterface(bytes4)": {
        "details": "See {IERC165-supportsInterface}."
      },
      "symbol()": {
        "details": "See {IERC721Metadata-symbol}."
      },
      "transferFrom(address,address,uint256)": {
        "details": "See {IERC721-transferFrom}."
      }
    },
    "version": 1
  },
  "opcodes": "PUSH1 0x80 PUSH1 0x40 MSTORE CALLVALUE DUP1 ISZERO PUSH2 0x10 JUMPI PUSH1 0x0 DUP1 REVERT JUMPDEST POP PUSH1 0x4 CALLDATASIZE LT PUSH2 0x1C4 JUMPI PUSH1 0x0 CALLDATALOAD PUSH1 0xE0 SHR DUP1 PUSH4 0x81F64492 GT PUSH2 0xF9 JUMPI DUP1 PUSH4 0xB88D4FDE GT PUSH2 0x97 JUMPI DUP1 PUSH4 0xD4F24C5B GT PUSH2 0x71 JUMPI DUP1 PUSH4 0xD4F24C5B EQ PUSH2 0x3CD JUMPI DUP1 PUSH4 0xE985E9C5 EQ PUSH2 0x3D5 JUMPI DUP1 PUSH4 0xF8B81EF7 EQ PUSH2 0x411 JUMPI DUP1 PUSH4 0xFE59D554 EQ PUSH2 0x424 JUMPI PUSH1 0x0 DUP1 REVERT JUMPDEST DUP1 PUSH4 0xB88D4FDE EQ PUSH2 0x394 JUMPI DUP1 PUSH4 0xC87B56DD EQ PUSH2 0x3A7 JUMPI DUP1 PUSH4 0xCD7CD41B EQ PUSH2 0x3BA JUMPI PUSH1 0x0 DUP1 REVERT JUMPDEST DUP1 PUSH4 0x95D89B41 GT PUSH2 0xD3 JUMPI DUP1 PUSH4 0x95D89B41 EQ PUSH2 0x33B JUMPI DUP1 PUSH4 0x98DA4C95 EQ PUSH2 0x343 JUMPI DUP1 PUSH4 0xA22CB465 EQ PUSH2 0x368 JUMPI DUP1 PUSH4 0xA9C32679 EQ PUSH2 0x37B JUMPI PUSH1 0x0 DUP1 REVERT JUMPDEST DUP1 PUSH4 0x81F64492 EQ PUSH2 0x318 JUMPI DUP1 PUSH4 0x8DA5CB5B EQ PUSH2 0x320 JUMPI DUP1 PUSH4 0x95851A65 EQ PUSH2 0x333 JUMPI PUSH1 0x0 DUP1 REVERT JUMPDEST DUP1 PUSH4 0x42842E0E GT PUSH2 0x166 JUMPI DUP1 PUSH4 0x70A08231 GT PUSH2 0x140 JUMPI DUP1 PUSH4 0x70A08231 EQ PUSH2 0x2BD JUMPI DUP1 PUSH4 0x74BCE80A EQ PUSH2 0x2D0 JUMPI DUP1 PUSH4 0x7DAE379F EQ PUSH2 0x2E5 JUMPI DUP1 PUSH4 0x7DF124A1 EQ PUSH2 0x2F8 JUMPI PUSH1 0x0 DUP1 REVERT JUMPDEST DUP1 PUSH4 0x42842E0E EQ PUSH2 0x281 JUMPI DUP1 PUSH4 0x5EC01E4D EQ PUSH2 0x294 JUMPI DUP1 PUSH4 0x6352211E EQ PUSH2 0x2AA JUMPI PUSH1 0x0 DUP1 REVERT JUMPDEST DUP1 PUSH4 0x81812FC GT PUSH2 0x1A2 JUMPI DUP1 PUSH4 0x81812FC EQ PUSH2 0x21B JUMPI DUP1 PUSH4 0x95EA7B3 EQ PUSH2 0x246 JUMPI DUP1 PUSH4 0x23B872DD EQ PUSH2 0x25B JUMPI DUP1 PUSH4 0x2498B5FF EQ PUSH2 0x26E JUMPI PUSH1 0x0 DUP1 REVERT JUMPDEST DUP1 PUSH4 0x1FFC9A7 EQ PUSH2 0x1C9 JUMPI DUP1 PUSH4 0x665F961 EQ PUSH2 0x1F1 JUMPI DUP1 PUSH4 0x6FDDE03 EQ PUSH2 0x206 JUMPI JUMPDEST PUSH1 0x0 DUP1 REVERT JUMPDEST PUSH2 0x1DC PUSH2 0x1D7 CALLDATASIZE PUSH1 0x4 PUSH2 0x25B4 JUMP JUMPDEST PUSH2 0x444 JUMP JUMPDEST PUSH1 0x40 MLOAD SWAP1 ISZERO ISZERO DUP2 MSTORE PUSH1 0x20 ADD JUMPDEST PUSH1 0x40 MLOAD DUP1 SWAP2 SUB SWAP1 RETURN JUMPDEST PUSH2 0x1F9 PUSH2 0x496 JUMP JUMPDEST PUSH1 0x40 MLOAD PUSH2 0x1E8 SWAP2 SWAP1 PUSH2 0x2629 JUMP JUMPDEST PUSH2 0x20E PUSH2 0x61C JUMP JUMPDEST PUSH1 0x40 MLOAD PUSH2 0x1E8 SWAP2 SWAP1 PUSH2 0x268D JUMP JUMPDEST PUSH2 0x22E PUSH2 0x229 CALLDATASIZE PUSH1 0x4 PUSH2 0x26A0 JUMP JUMPDEST PUSH2 0x6AE JUMP JUMPDEST PUSH1 0x40 MLOAD PUSH1 0x1 PUSH1 0x1 PUSH1 0xA0 SHL SUB SWAP1 SWAP2 AND DUP2 MSTORE PUSH1 0x20 ADD PUSH2 0x1E8 JUMP JUMPDEST PUSH2 0x259 PUSH2 0x254 CALLDATASIZE PUSH1 0x4 PUSH2 0x26D5 JUMP JUMPDEST PUSH2 0x748 JUMP JUMPDEST STOP JUMPDEST PUSH2 0x259 PUSH2 0x269 CALLDATASIZE PUSH1 0x4 PUSH2 0x26FF JUMP JUMPDEST PUSH2 0x85E JUMP JUMPDEST PUSH2 0x259 PUSH2 0x27C CALLDATASIZE PUSH1 0x4 PUSH2 0x2846 JUMP JUMPDEST PUSH2 0x88F JUMP JUMPDEST PUSH2 0x259 PUSH2 0x28F CALLDATASIZE PUSH1 0x4 PUSH2 0x26FF JUMP JUMPDEST PUSH2 0xA32 JUMP JUMPDEST PUSH2 0x29C PUSH2 0xA4D JUMP JUMPDEST PUSH1 0x40 MLOAD SWAP1 DUP2 MSTORE PUSH1 0x20 ADD PUSH2 0x1E8 JUMP JUMPDEST PUSH2 0x22E PUSH2 0x2B8 CALLDATASIZE PUSH1 0x4 PUSH2 0x26A0 JUMP JUMPDEST PUSH2 0xA89 JUMP JUMPDEST PUSH2 0x29C PUSH2 0x2CB CALLDATASIZE PUSH1 0x4 PUSH2 0x2993 JUMP JUMPDEST PUSH2 0xB00 JUMP JUMPDEST PUSH2 0x2D8 PUSH2 0xB87 JUMP JUMPDEST PUSH1 0x40 MLOAD PUSH2 0x1E8 SWAP2 SWAP1 PUSH2 0x2A11 JUMP JUMPDEST PUSH2 0x259 PUSH2 0x2F3 CALLDATASIZE PUSH1 0x4 PUSH2 0x2A73 JUMP JUMPDEST PUSH2 0xD32 JUMP JUMPDEST PUSH2 0x29C PUSH2 0x306 CALLDATASIZE PUSH1 0x4 PUSH2 0x2993 JUMP JUMPDEST PUSH1 0x11 PUSH1 0x20 MSTORE PUSH1 0x0 SWAP1 DUP2 MSTORE PUSH1 0x40 SWAP1 KECCAK256 SLOAD DUP2 JUMP JUMPDEST PUSH2 0x259 PUSH2 0xDE5 JUMP JUMPDEST PUSH1 0x7 SLOAD PUSH2 0x22E SWAP1 PUSH1 0x1 PUSH1 0x1 PUSH1 0xA0 SHL SUB AND DUP2 JUMP JUMPDEST PUSH2 0x259 PUSH2 0xE84 JUMP JUMPDEST PUSH2 0x20E PUSH2 0xF9D JUMP JUMPDEST PUSH2 0x356 PUSH2 0x351 CALLDATASIZE PUSH1 0x4 PUSH2 0x26A0 JUMP JUMPDEST PUSH2 0xFAC JUMP JUMPDEST PUSH1 0x40 MLOAD PUSH2 0x1E8 SWAP7 SWAP6 SWAP5 SWAP4 SWAP3 SWAP2 SWAP1 PUSH2 0x2B25 JUMP JUMPDEST PUSH2 0x259 PUSH2 0x376 CALLDATASIZE PUSH1 0x4 PUSH2 0x2B6F JUMP JUMPDEST PUSH2 0x10F1 JUMP JUMPDEST PUSH2 0x383 PUSH2 0x11B6 JUMP JUMPDEST PUSH1 0x40 MLOAD PUSH2 0x1E8 SWAP6 SWAP5 SWAP4 SWAP3 SWAP2 SWAP1 PUSH2 0x2BAB JUMP JUMPDEST PUSH2 0x259 PUSH2 0x3A2 CALLDATASIZE PUSH1 0x4 PUSH2 0x2BEE JUMP JUMPDEST PUSH2 0x12E8 JUMP JUMPDEST PUSH2 0x20E PUSH2 0x3B5 CALLDATASIZE PUSH1 0x4 PUSH2 0x26A0 JUMP JUMPDEST PUSH2 0x1320 JUMP JUMPDEST PUSH2 0x1DC PUSH2 0x3C8 CALLDATASIZE PUSH1 0x4 PUSH2 0x2993 JUMP JUMPDEST PUSH2 0x1531 JUMP JUMPDEST PUSH2 0x259 PUSH2 0x1562 JUMP JUMPDEST PUSH2 0x1DC PUSH2 0x3E3 CALLDATASIZE PUSH1 0x4 PUSH2 0x2C6A JUMP JUMPDEST PUSH1 0x1 PUSH1 0x1 PUSH1 0xA0 SHL SUB SWAP2 DUP3 AND PUSH1 0x0 SWAP1 DUP2 MSTORE PUSH1 0x5 PUSH1 0x20 SWAP1 DUP2 MSTORE PUSH1 0x40 DUP1 DUP4 KECCAK256 SWAP4 SWAP1 SWAP5 AND DUP3 MSTORE SWAP2 SWAP1 SWAP2 MSTORE KECCAK256 SLOAD PUSH1 0xFF AND SWAP1 JUMP JUMPDEST PUSH2 0x259 PUSH2 0x41F CALLDATASIZE PUSH1 0x4 PUSH2 0x26A0 JUMP JUMPDEST PUSH2 0x1732 JUMP JUMPDEST PUSH2 0x437 PUSH2 0x432 CALLDATASIZE PUSH1 0x4 PUSH2 0x2993 JUMP JUMPDEST PUSH2 0x1A53 JUMP JUMPDEST PUSH1 0x40 MLOAD PUSH2 0x1E8 SWAP2 SWAP1 PUSH2 0x2C9D JUMP JUMPDEST PUSH1 0x0 PUSH1 0x1 PUSH1 0x1 PUSH1 0xE0 SHL SUB NOT DUP3 AND PUSH4 0x80AC58CD PUSH1 0xE0 SHL EQ DUP1 PUSH2 0x475 JUMPI POP PUSH1 0x1 PUSH1 0x1 PUSH1 0xE0 SHL SUB NOT DUP3 AND PUSH4 0x5B5E139F PUSH1 0xE0 SHL EQ JUMPDEST DUP1 PUSH2 0x490 JUMPI POP PUSH4 0x1FFC9A7 PUSH1 0xE0 SHL PUSH1 0x1 PUSH1 0x1 PUSH1 0xE0 SHL SUB NOT DUP4 AND EQ JUMPDEST SWAP3 SWAP2 POP POP JUMP JUMPDEST PUSH2 0x4C8 PUSH1 0x40 MLOAD DUP1 PUSH1 0xA0 ADD PUSH1 0x40 MSTORE DUP1 PUSH1 0x60 DUP2 MSTORE PUSH1 0x20 ADD PUSH1 0x60 DUP2 MSTORE PUSH1 0x20 ADD PUSH1 0x0 DUP2 MSTORE PUSH1 0x20 ADD PUSH1 0x0 DUP2 MSTORE PUSH1 0x20 ADD PUSH1 0x0 DUP2 MSTORE POP SWAP1 JUMP JUMPDEST PUSH1 0x8 PUSH1 0x40 MLOAD DUP1 PUSH1 0xA0 ADD PUSH1 0x40 MSTORE SWAP1 DUP2 PUSH1 0x0 DUP3 ADD DUP1 SLOAD PUSH2 0x4E5 SWAP1 PUSH2 0x2CB0 JUMP JUMPDEST DUP1 PUSH1 0x1F ADD PUSH1 0x20 DUP1 SWAP2 DIV MUL PUSH1 0x20 ADD PUSH1 0x40 MLOAD SWAP1 DUP2 ADD PUSH1 0x40 MSTORE DUP1 SWAP3 SWAP2 SWAP1 DUP2 DUP2 MSTORE PUSH1 0x20 ADD DUP3 DUP1 SLOAD PUSH2 0x511 SWAP1 PUSH2 0x2CB0 JUMP JUMPDEST DUP1 ISZERO PUSH2 0x55E JUMPI DUP1 PUSH1 0x1F LT PUSH2 0x533 JUMPI PUSH2 0x100 DUP1 DUP4 SLOAD DIV MUL DUP4 MSTORE SWAP2 PUSH1 0x20 ADD SWAP2 PUSH2 0x55E JUMP JUMPDEST DUP3 ADD SWAP2 SWAP1 PUSH1 0x0 MSTORE PUSH1 0x20 PUSH1 0x0 KECCAK256 SWAP1 JUMPDEST DUP2 SLOAD DUP2 MSTORE SWAP1 PUSH1 0x1 ADD SWAP1 PUSH1 0x20 ADD DUP1 DUP4 GT PUSH2 0x541 JUMPI DUP3 SWAP1 SUB PUSH1 0x1F AND DUP3 ADD SWAP2 JUMPDEST POP POP POP POP POP DUP2 MSTORE PUSH1 0x20 ADD PUSH1 0x1 DUP3 ADD DUP1 SLOAD PUSH2 0x577 SWAP1 PUSH2 0x2CB0 JUMP JUMPDEST DUP1 PUSH1 0x1F ADD PUSH1 0x20 DUP1 SWAP2 DIV MUL PUSH1 0x20 ADD PUSH1 0x40 MLOAD SWAP1 DUP2 ADD PUSH1 0x40 MSTORE DUP1 SWAP3 SWAP2 SWAP1 DUP2 DUP2 MSTORE PUSH1 0x20 ADD DUP3 DUP1 SLOAD PUSH2 0x5A3 SWAP1 PUSH2 0x2CB0 JUMP JUMPDEST DUP1 ISZERO PUSH2 0x5F0 JUMPI DUP1 PUSH1 0x1F LT PUSH2 0x5C5 JUMPI PUSH2 0x100 DUP1 DUP4 SLOAD DIV MUL DUP4 MSTORE SWAP2 PUSH1 0x20 ADD SWAP2 PUSH2 0x5F0 JUMP JUMPDEST DUP3 ADD SWAP2 SWAP1 PUSH1 0x0 MSTORE PUSH1 0x20 PUSH1 0x0 KECCAK256 SWAP1 JUMPDEST DUP2 SLOAD DUP2 MSTORE SWAP1 PUSH1 0x1 ADD SWAP1 PUSH1 0x20 ADD DUP1 DUP4 GT PUSH2 0x5D3 JUMPI DUP3 SWAP1 SUB PUSH1 0x1F AND DUP3 ADD SWAP2 JUMPDEST POP POP POP POP POP DUP2 MSTORE PUSH1 0x20 ADD PUSH1 0x2 DUP3 ADD SLOAD DUP2 MSTORE PUSH1 0x20 ADD PUSH1 0x3 DUP3 ADD SLOAD DUP2 MSTORE PUSH1 0x20 ADD PUSH1 0x4 DUP3 ADD SLOAD DUP2 MSTORE POP POP SWAP1 POP SWAP1 JUMP JUMPDEST PUSH1 0x60 PUSH1 0x0 DUP1 SLOAD PUSH2 0x62B SWAP1 PUSH2 0x2CB0 JUMP JUMPDEST DUP1 PUSH1 0x1F ADD PUSH1 0x20 DUP1 SWAP2 DIV MUL PUSH1 0x20 ADD PUSH1 0x40 MLOAD SWAP1 DUP2 ADD PUSH1 0x40 MSTORE DUP1 SWAP3 SWAP2 SWAP1 DUP2 DUP2 MSTORE PUSH1 0x20 ADD DUP3 DUP1 SLOAD PUSH2 0x657 SWAP1 PUSH2 0x2CB0 JUMP JUMPDEST DUP1 ISZERO PUSH2 0x6A4 JUMPI DUP1 PUSH1 0x1F LT PUSH2 0x679 JUMPI PUSH2 0x100 DUP1 DUP4 SLOAD DIV MUL DUP4 MSTORE SWAP2 PUSH1 0x20 ADD SWAP2 PUSH2 0x6A4 JUMP JUMPDEST DUP3 ADD SWAP2 SWAP1 PUSH1 0x0 MSTORE PUSH1 0x20 PUSH1 0x0 KECCAK256 SWAP1 JUMPDEST DUP2 SLOAD DUP2 MSTORE SWAP1 PUSH1 0x1 ADD SWAP1 PUSH1 0x20 ADD DUP1 DUP4 GT PUSH2 0x687 JUMPI DUP3 SWAP1 SUB PUSH1 0x1F AND DUP3 ADD SWAP2 JUMPDEST POP POP POP POP POP SWAP1 POP SWAP1 JUMP JUMPDEST PUSH1 0x0 DUP2 DUP2 MSTORE PUSH1 0x2 PUSH1 0x20 MSTORE PUSH1 0x40 DUP2 KECCAK256 SLOAD PUSH1 0x1 PUSH1 0x1 PUSH1 0xA0 SHL SUB AND PUSH2 0x72C JUMPI PUSH1 0x40 MLOAD PUSH3 0x461BCD PUSH1 0xE5 SHL DUP2 MSTORE PUSH1 0x20 PUSH1 0x4 DUP3 ADD MSTORE PUSH1 0x2C PUSH1 0x24 DUP3 ADD MSTORE PUSH32 0x4552433732313A20617070726F76656420717565727920666F72206E6F6E6578 PUSH1 0x44 DUP3 ADD MSTORE PUSH12 0x34B9BA32B73A103A37B5B2B7 PUSH1 0xA1 SHL PUSH1 0x64 DUP3 ADD MSTORE PUSH1 0x84 ADD JUMPDEST PUSH1 0x40 MLOAD DUP1 SWAP2 SUB SWAP1 REVERT JUMPDEST POP PUSH1 0x0 SWAP1 DUP2 MSTORE PUSH1 0x4 PUSH1 0x20 MSTORE PUSH1 0x40 SWAP1 KECCAK256 SLOAD PUSH1 0x1 PUSH1 0x1 PUSH1 0xA0 SHL SUB AND SWAP1 JUMP JUMPDEST PUSH1 0x0 PUSH2 0x753 DUP3 PUSH2 0xA89 JUMP JUMPDEST SWAP1 POP DUP1 PUSH1 0x1 PUSH1 0x1 PUSH1 0xA0 SHL SUB AND DUP4 PUSH1 0x1 PUSH1 0x1 PUSH1 0xA0 SHL SUB AND EQ ISZERO PUSH2 0x7C1 JUMPI PUSH1 0x40 MLOAD PUSH3 0x461BCD PUSH1 0xE5 SHL DUP2 MSTORE PUSH1 0x20 PUSH1 0x4 DUP3 ADD MSTORE PUSH1 0x21 PUSH1 0x24 DUP3 ADD MSTORE PUSH32 0x4552433732313A20617070726F76616C20746F2063757272656E74206F776E65 PUSH1 0x44 DUP3 ADD MSTORE PUSH1 0x39 PUSH1 0xF9 SHL PUSH1 0x64 DUP3 ADD MSTORE PUSH1 0x84 ADD PUSH2 0x723 JUMP JUMPDEST CALLER PUSH1 0x1 PUSH1 0x1 PUSH1 0xA0 SHL SUB DUP3 AND EQ DUP1 PUSH2 0x7DD JUMPI POP PUSH2 0x7DD DUP2 CALLER PUSH2 0x3E3 JUMP JUMPDEST PUSH2 0x84F JUMPI PUSH1 0x40 MLOAD PUSH3 0x461BCD PUSH1 0xE5 SHL DUP2 MSTORE PUSH1 0x20 PUSH1 0x4 DUP3 ADD MSTORE PUSH1 0x38 PUSH1 0x24 DUP3 ADD MSTORE PUSH32 0x4552433732313A20617070726F76652063616C6C6572206973206E6F74206F77 PUSH1 0x44 DUP3 ADD MSTORE PUSH32 0x6E6572206E6F7220617070726F76656420666F7220616C6C0000000000000000 PUSH1 0x64 DUP3 ADD MSTORE PUSH1 0x84 ADD PUSH2 0x723 JUMP JUMPDEST PUSH2 0x859 DUP4 DUP4 PUSH2 0x1C6C JUMP JUMPDEST POP POP POP JUMP JUMPDEST PUSH2 0x868 CALLER DUP3 PUSH2 0x1CDA JUMP JUMPDEST PUSH2 0x884 JUMPI PUSH1 0x40 MLOAD PUSH3 0x461BCD PUSH1 0xE5 SHL DUP2 MSTORE PUSH1 0x4 ADD PUSH2 0x723 SWAP1 PUSH2 0x2CE5 JUMP JUMPDEST PUSH2 0x859 DUP4 DUP4 DUP4 PUSH2 0x1DD1 JUMP JUMPDEST PUSH1 0x7 SLOAD PUSH1 0x1 PUSH1 0x1 PUSH1 0xA0 SHL SUB AND CALLER EQ PUSH2 0x8B9 JUMPI PUSH1 0x40 MLOAD PUSH3 0x461BCD PUSH1 0xE5 SHL DUP2 MSTORE PUSH1 0x4 ADD PUSH2 0x723 SWAP1 PUSH2 0x2D36 JUMP JUMPDEST PUSH1 0x0 JUMPDEST DUP2 MLOAD DUP2 LT ISZERO PUSH2 0xA2E JUMPI PUSH1 0xF PUSH1 0x40 MLOAD DUP1 PUSH1 0xC0 ADD PUSH1 0x40 MSTORE DUP1 DUP5 DUP5 DUP2 MLOAD DUP2 LT PUSH2 0x8E4 JUMPI PUSH2 0x8E4 PUSH2 0x2D65 JUMP JUMPDEST PUSH1 0x20 MUL PUSH1 0x20 ADD ADD MLOAD PUSH1 0x0 ADD MLOAD DUP2 MSTORE PUSH1 0x20 ADD DUP5 DUP5 DUP2 MLOAD DUP2 LT PUSH2 0x907 JUMPI PUSH2 0x907 PUSH2 0x2D65 JUMP JUMPDEST PUSH1 0x20 MUL PUSH1 0x20 ADD ADD MLOAD PUSH1 0x20 ADD MLOAD DUP2 MSTORE PUSH1 0x20 ADD DUP5 DUP5 DUP2 MLOAD DUP2 LT PUSH2 0x92A JUMPI PUSH2 0x92A PUSH2 0x2D65 JUMP JUMPDEST PUSH1 0x20 MUL PUSH1 0x20 ADD ADD MLOAD PUSH1 0x40 ADD MLOAD DUP2 MSTORE PUSH1 0x20 ADD DUP5 DUP5 DUP2 MLOAD DUP2 LT PUSH2 0x94D JUMPI PUSH2 0x94D PUSH2 0x2D65 JUMP JUMPDEST PUSH1 0x20 MUL PUSH1 0x20 ADD ADD MLOAD PUSH1 0x60 ADD MLOAD DUP2 MSTORE PUSH1 0x20 ADD DUP5 DUP5 DUP2 MLOAD DUP2 LT PUSH2 0x970 JUMPI PUSH2 0x970 PUSH2 0x2D65 JUMP JUMPDEST PUSH1 0x20 MUL PUSH1 0x20 ADD ADD MLOAD PUSH1 0x80 ADD MLOAD DUP2 MSTORE PUSH1 0x20 ADD DUP5 DUP5 DUP2 MLOAD DUP2 LT PUSH2 0x993 JUMPI PUSH2 0x993 PUSH2 0x2D65 JUMP JUMPDEST PUSH1 0x20 SWAP1 DUP2 MUL SWAP2 SWAP1 SWAP2 ADD DUP2 ADD MLOAD PUSH1 0xA0 ADD MLOAD SWAP1 SWAP2 MSTORE DUP3 SLOAD PUSH1 0x1 DUP2 DUP2 ADD DUP6 SSTORE PUSH1 0x0 SWAP5 DUP6 MSTORE SWAP4 DUP3 SWAP1 KECCAK256 DUP4 MLOAD PUSH1 0x6 SWAP1 SWAP3 MUL ADD SWAP1 DUP2 SSTORE DUP3 DUP3 ADD MLOAD DUP1 MLOAD SWAP4 SWAP5 SWAP2 SWAP4 PUSH2 0x9DF SWAP4 SWAP3 DUP6 ADD SWAP3 SWAP2 SWAP1 SWAP2 ADD SWAP1 PUSH2 0x2502 JUMP JUMPDEST POP PUSH1 0x40 DUP3 ADD MLOAD DUP1 MLOAD PUSH2 0x9FB SWAP2 PUSH1 0x2 DUP5 ADD SWAP2 PUSH1 0x20 SWAP1 SWAP2 ADD SWAP1 PUSH2 0x2502 JUMP JUMPDEST POP PUSH1 0x60 DUP3 ADD MLOAD PUSH1 0x3 DUP3 ADD SSTORE PUSH1 0x80 DUP3 ADD MLOAD PUSH1 0x4 DUP3 ADD SSTORE PUSH1 0xA0 SWAP1 SWAP2 ADD MLOAD PUSH1 0x5 SWAP1 SWAP2 ADD SSTORE PUSH2 0xA27 PUSH1 0x1 DUP3 PUSH2 0x2D91 JUMP JUMPDEST SWAP1 POP PUSH2 0x8BC JUMP JUMPDEST POP POP JUMP JUMPDEST PUSH2 0x859 DUP4 DUP4 DUP4 PUSH1 0x40 MLOAD DUP1 PUSH1 0x20 ADD PUSH1 0x40 MSTORE DUP1 PUSH1 0x0 DUP2 MSTORE POP PUSH2 0x12E8 JUMP JUMPDEST PUSH1 0x0 DIFFICULTY TIMESTAMP PUSH1 0x40 MLOAD PUSH1 0x20 ADD PUSH2 0xA6B SWAP3 SWAP2 SWAP1 SWAP2 DUP3 MSTORE PUSH1 0x20 DUP3 ADD MSTORE PUSH1 0x40 ADD SWAP1 JUMP JUMPDEST PUSH1 0x40 MLOAD PUSH1 0x20 DUP2 DUP4 SUB SUB DUP2 MSTORE SWAP1 PUSH1 0x40 MSTORE DUP1 MLOAD SWAP1 PUSH1 0x20 ADD KECCAK256 PUSH1 0x0 SHR SWAP1 POP SWAP1 JUMP JUMPDEST PUSH1 0x0 DUP2 DUP2 MSTORE PUSH1 0x2 PUSH1 0x20 MSTORE PUSH1 0x40 DUP2 KECCAK256 SLOAD PUSH1 0x1 PUSH1 0x1 PUSH1 0xA0 SHL SUB AND DUP1 PUSH2 0x490 JUMPI PUSH1 0x40 MLOAD PUSH3 0x461BCD PUSH1 0xE5 SHL DUP2 MSTORE PUSH1 0x20 PUSH1 0x4 DUP3 ADD MSTORE PUSH1 0x29 PUSH1 0x24 DUP3 ADD MSTORE PUSH32 0x4552433732313A206F776E657220717565727920666F72206E6F6E6578697374 PUSH1 0x44 DUP3 ADD MSTORE PUSH9 0x32B73A103A37B5B2B7 PUSH1 0xB9 SHL PUSH1 0x64 DUP3 ADD MSTORE PUSH1 0x84 ADD PUSH2 0x723 JUMP JUMPDEST PUSH1 0x0 PUSH1 0x1 PUSH1 0x1 PUSH1 0xA0 SHL SUB DUP3 AND PUSH2 0xB6B JUMPI PUSH1 0x40 MLOAD PUSH3 0x461BCD PUSH1 0xE5 SHL DUP2 MSTORE PUSH1 0x20 PUSH1 0x4 DUP3 ADD MSTORE PUSH1 0x2A PUSH1 0x24 DUP3 ADD MSTORE PUSH32 0x4552433732313A2062616C616E636520717565727920666F7220746865207A65 PUSH1 0x44 DUP3 ADD MSTORE PUSH10 0x726F2061646472657373 PUSH1 0xB0 SHL PUSH1 0x64 DUP3 ADD MSTORE PUSH1 0x84 ADD PUSH2 0x723 JUMP JUMPDEST POP PUSH1 0x1 PUSH1 0x1 PUSH1 0xA0 SHL SUB AND PUSH1 0x0 SWAP1 DUP2 MSTORE PUSH1 0x3 PUSH1 0x20 MSTORE PUSH1 0x40 SWAP1 KECCAK256 SLOAD SWAP1 JUMP JUMPDEST PUSH1 0x60 PUSH1 0xF DUP1 SLOAD DUP1 PUSH1 0x20 MUL PUSH1 0x20 ADD PUSH1 0x40 MLOAD SWAP1 DUP2 ADD PUSH1 0x40 MSTORE DUP1 SWAP3 SWAP2 SWAP1 DUP2 DUP2 MSTORE PUSH1 0x20 ADD PUSH1 0x0 SWAP1 JUMPDEST DUP3 DUP3 LT ISZERO PUSH2 0xD29 JUMPI DUP4 DUP3 SWAP1 PUSH1 0x0 MSTORE PUSH1 0x20 PUSH1 0x0 KECCAK256 SWAP1 PUSH1 0x6 MUL ADD PUSH1 0x40 MLOAD DUP1 PUSH1 0xC0 ADD PUSH1 0x40 MSTORE SWAP1 DUP2 PUSH1 0x0 DUP3 ADD SLOAD DUP2 MSTORE PUSH1 0x20 ADD PUSH1 0x1 DUP3 ADD DUP1 SLOAD PUSH2 0xBE8 SWAP1 PUSH2 0x2CB0 JUMP JUMPDEST DUP1 PUSH1 0x1F ADD PUSH1 0x20 DUP1 SWAP2 DIV MUL PUSH1 0x20 ADD PUSH1 0x40 MLOAD SWAP1 DUP2 ADD PUSH1 0x40 MSTORE DUP1 SWAP3 SWAP2 SWAP1 DUP2 DUP2 MSTORE PUSH1 0x20 ADD DUP3 DUP1 SLOAD PUSH2 0xC14 SWAP1 PUSH2 0x2CB0 JUMP JUMPDEST DUP1 ISZERO PUSH2 0xC61 JUMPI DUP1 PUSH1 0x1F LT PUSH2 0xC36 JUMPI PUSH2 0x100 DUP1 DUP4 SLOAD DIV MUL DUP4 MSTORE SWAP2 PUSH1 0x20 ADD SWAP2 PUSH2 0xC61 JUMP JUMPDEST DUP3 ADD SWAP2 SWAP1 PUSH1 0x0 MSTORE PUSH1 0x20 PUSH1 0x0 KECCAK256 SWAP1 JUMPDEST DUP2 SLOAD DUP2 MSTORE SWAP1 PUSH1 0x1 ADD SWAP1 PUSH1 0x20 ADD DUP1 DUP4 GT PUSH2 0xC44 JUMPI DUP3 SWAP1 SUB PUSH1 0x1F AND DUP3 ADD SWAP2 JUMPDEST POP POP POP POP POP DUP2 MSTORE PUSH1 0x20 ADD PUSH1 0x2 DUP3 ADD DUP1 SLOAD PUSH2 0xC7A SWAP1 PUSH2 0x2CB0 JUMP JUMPDEST DUP1 PUSH1 0x1F ADD PUSH1 0x20 DUP1 SWAP2 DIV MUL PUSH1 0x20 ADD PUSH1 0x40 MLOAD SWAP1 DUP2 ADD PUSH1 0x40 MSTORE DUP1 SWAP3 SWAP2 SWAP1 DUP2 DUP2 MSTORE PUSH1 0x20 ADD DUP3 DUP1 SLOAD PUSH2 0xCA6 SWAP1 PUSH2 0x2CB0 JUMP JUMPDEST DUP1 ISZERO PUSH2 0xCF3 JUMPI DUP1 PUSH1 0x1F LT PUSH2 0xCC8 JUMPI PUSH2 0x100 DUP1 DUP4 SLOAD DIV MUL DUP4 MSTORE SWAP2 PUSH1 0x20 ADD SWAP2 PUSH2 0xCF3 JUMP JUMPDEST DUP3 ADD SWAP2 SWAP1 PUSH1 0x0 MSTORE PUSH1 0x20 PUSH1 0x0 KECCAK256 SWAP1 JUMPDEST DUP2 SLOAD DUP2 MSTORE SWAP1 PUSH1 0x1 ADD SWAP1 PUSH1 0x20 ADD DUP1 DUP4 GT PUSH2 0xCD6 JUMPI DUP3 SWAP1 SUB PUSH1 0x1F AND DUP3 ADD SWAP2 JUMPDEST POP POP POP POP POP DUP2 MSTORE PUSH1 0x20 ADD PUSH1 0x3 DUP3 ADD SLOAD DUP2 MSTORE PUSH1 0x20 ADD PUSH1 0x4 DUP3 ADD SLOAD DUP2 MSTORE PUSH1 0x20 ADD PUSH1 0x5 DUP3 ADD SLOAD DUP2 MSTORE POP POP DUP2 MSTORE PUSH1 0x20 ADD SWAP1 PUSH1 0x1 ADD SWAP1 PUSH2 0xBAB JUMP JUMPDEST POP POP POP POP SWAP1 POP SWAP1 JUMP JUMPDEST PUSH1 0x7 SLOAD PUSH1 0x1 PUSH1 0x1 PUSH1 0xA0 SHL SUB AND CALLER EQ PUSH2 0xD5C JUMPI PUSH1 0x40 MLOAD PUSH3 0x461BCD PUSH1 0xE5 SHL DUP2 MSTORE PUSH1 0x4 ADD PUSH2 0x723 SWAP1 PUSH2 0x2D36 JUMP JUMPDEST PUSH1 0x40 DUP1 MLOAD PUSH1 0xA0 DUP2 ADD DUP3 MSTORE DUP3 MLOAD DUP1 DUP3 MSTORE PUSH1 0x20 DUP1 DUP6 ADD MLOAD DUP2 DUP5 ADD MSTORE DUP5 DUP5 ADD MLOAD SWAP4 DUP4 ADD SWAP4 SWAP1 SWAP4 MSTORE PUSH1 0x60 DUP1 DUP6 ADD MLOAD SWAP1 DUP4 ADD MSTORE PUSH1 0x80 DUP1 DUP6 ADD MLOAD SWAP1 DUP4 ADD MSTORE DUP1 MLOAD SWAP2 SWAP3 PUSH1 0x8 SWAP3 PUSH2 0xDA8 SWAP3 DUP5 SWAP3 ADD SWAP1 PUSH2 0x2502 JUMP JUMPDEST POP PUSH1 0x20 DUP3 DUP2 ADD MLOAD DUP1 MLOAD PUSH2 0xDC1 SWAP3 PUSH1 0x1 DUP6 ADD SWAP3 ADD SWAP1 PUSH2 0x2502 JUMP JUMPDEST POP PUSH1 0x40 DUP3 ADD MLOAD PUSH1 0x2 DUP3 ADD SSTORE PUSH1 0x60 DUP3 ADD MLOAD PUSH1 0x3 DUP3 ADD SSTORE PUSH1 0x80 SWAP1 SWAP2 ADD MLOAD PUSH1 0x4 SWAP1 SWAP2 ADD SSTORE POP JUMP JUMPDEST PUSH1 0x7 SLOAD PUSH1 0x1 PUSH1 0x1 PUSH1 0xA0 SHL SUB AND CALLER EQ PUSH2 0xE0F JUMPI PUSH1 0x40 MLOAD PUSH3 0x461BCD PUSH1 0xE5 SHL DUP2 MSTORE PUSH1 0x4 ADD PUSH2 0x723 SWAP1 PUSH2 0x2D36 JUMP JUMPDEST PUSH1 0xA SLOAD ISZERO PUSH2 0xE5F JUMPI PUSH1 0x40 MLOAD PUSH3 0x461BCD PUSH1 0xE5 SHL DUP2 MSTORE PUSH1 0x20 PUSH1 0x4 DUP3 ADD MSTORE PUSH1 0x1B PUSH1 0x24 DUP3 ADD MSTORE PUSH32 0x43616E6E6F742072657669766520616E20616C69766520426F73730000000000 PUSH1 0x44 DUP3 ADD MSTORE PUSH1 0x64 ADD PUSH2 0x723 JUMP JUMPDEST PUSH1 0xB SLOAD PUSH2 0xE6E SWAP1 PUSH1 0x2 SWAP1 PUSH2 0x2DBF JUMP JUMPDEST PUSH1 0xA SSTORE PUSH1 0xC SLOAD PUSH2 0xE7F SWAP1 PUSH1 0x2 PUSH2 0x2DD3 JUMP JUMPDEST PUSH1 0xC SSTORE JUMP JUMPDEST PUSH2 0xE8D CALLER PUSH2 0x1531 JUMP JUMPDEST ISZERO ISZERO PUSH1 0x1 EQ PUSH2 0xED7 JUMPI PUSH1 0x40 MLOAD PUSH3 0x461BCD PUSH1 0xE5 SHL DUP2 MSTORE PUSH1 0x20 PUSH1 0x4 DUP3 ADD MSTORE PUSH1 0x16 PUSH1 0x24 DUP3 ADD MSTORE PUSH22 0x596F75277265206E6F742074686520706C6179657221 PUSH1 0x50 SHL PUSH1 0x44 DUP3 ADD MSTORE PUSH1 0x64 ADD PUSH2 0x723 JUMP JUMPDEST CALLER PUSH1 0x0 SWAP1 DUP2 MSTORE PUSH1 0x11 PUSH1 0x20 SWAP1 DUP2 MSTORE PUSH1 0x40 DUP1 DUP4 KECCAK256 SLOAD DUP1 DUP5 MSTORE PUSH1 0x10 SWAP1 SWAP3 MSTORE SWAP1 SWAP2 KECCAK256 PUSH1 0x3 DUP2 ADD SLOAD ISZERO PUSH2 0xF47 JUMPI PUSH1 0x40 MLOAD PUSH3 0x461BCD PUSH1 0xE5 SHL DUP2 MSTORE PUSH1 0x20 PUSH1 0x4 DUP3 ADD MSTORE PUSH1 0x1A PUSH1 0x24 DUP3 ADD MSTORE PUSH32 0x43616E6E6F742072657669766520616E20616C697665204E4654000000000000 PUSH1 0x44 DUP3 ADD MSTORE PUSH1 0x64 ADD PUSH2 0x723 JUMP JUMPDEST PUSH1 0x2 DUP2 PUSH1 0x4 ADD SLOAD PUSH2 0xF58 SWAP2 SWAP1 PUSH2 0x2DBF JUMP JUMPDEST PUSH1 0x3 DUP3 ADD DUP2 SWAP1 SSTORE PUSH1 0x40 DUP1 MLOAD CALLER DUP2 MSTORE PUSH1 0x20 DUP2 ADD SWAP3 SWAP1 SWAP3 MSTORE PUSH32 0xE64B52B2CC92B4080B3706B7B810BCA4FE3002C44D8432D66D935711F8753E4C SWAP2 ADD PUSH1 0x40 MLOAD DUP1 SWAP2 SUB SWAP1 LOG1 POP POP JUMP JUMPDEST PUSH1 0x60 PUSH1 0x1 DUP1 SLOAD PUSH2 0x62B SWAP1 PUSH2 0x2CB0 JUMP JUMPDEST PUSH1 0x10 PUSH1 0x20 MSTORE PUSH1 0x0 SWAP1 DUP2 MSTORE PUSH1 0x40 SWAP1 KECCAK256 DUP1 SLOAD PUSH1 0x1 DUP3 ADD DUP1 SLOAD SWAP2 SWAP3 SWAP2 PUSH2 0xFCE SWAP1 PUSH2 0x2CB0 JUMP JUMPDEST DUP1 PUSH1 0x1F ADD PUSH1 0x20 DUP1 SWAP2 DIV MUL PUSH1 0x20 ADD PUSH1 0x40 MLOAD SWAP1 DUP2 ADD PUSH1 0x40 MSTORE DUP1 SWAP3 SWAP2 SWAP1 DUP2 DUP2 MSTORE PUSH1 0x20 ADD DUP3 DUP1 SLOAD PUSH2 0xFFA SWAP1 PUSH2 0x2CB0 JUMP JUMPDEST DUP1 ISZERO PUSH2 0x1047 JUMPI DUP1 PUSH1 0x1F LT PUSH2 0x101C JUMPI PUSH2 0x100 DUP1 DUP4 SLOAD DIV MUL DUP4 MSTORE SWAP2 PUSH1 0x20 ADD SWAP2 PUSH2 0x1047 JUMP JUMPDEST DUP3 ADD SWAP2 SWAP1 PUSH1 0x0 MSTORE PUSH1 0x20 PUSH1 0x0 KECCAK256 SWAP1 JUMPDEST DUP2 SLOAD DUP2 MSTORE SWAP1 PUSH1 0x1 ADD SWAP1 PUSH1 0x20 ADD DUP1 DUP4 GT PUSH2 0x102A JUMPI DUP3 SWAP1 SUB PUSH1 0x1F AND DUP3 ADD SWAP2 JUMPDEST POP POP POP POP POP SWAP1 DUP1 PUSH1 0x2 ADD DUP1 SLOAD PUSH2 0x105C SWAP1 PUSH2 0x2CB0 JUMP JUMPDEST DUP1 PUSH1 0x1F ADD PUSH1 0x20 DUP1 SWAP2 DIV MUL PUSH1 0x20 ADD PUSH1 0x40 MLOAD SWAP1 DUP2 ADD PUSH1 0x40 MSTORE DUP1 SWAP3 SWAP2 SWAP1 DUP2 DUP2 MSTORE PUSH1 0x20 ADD DUP3 DUP1 SLOAD PUSH2 0x1088 SWAP1 PUSH2 0x2CB0 JUMP JUMPDEST DUP1 ISZERO PUSH2 0x10D5 JUMPI DUP1 PUSH1 0x1F LT PUSH2 0x10AA JUMPI PUSH2 0x100 DUP1 DUP4 SLOAD DIV MUL DUP4 MSTORE SWAP2 PUSH1 0x20 ADD SWAP2 PUSH2 0x10D5 JUMP JUMPDEST DUP3 ADD SWAP2 SWAP1 PUSH1 0x0 MSTORE PUSH1 0x20 PUSH1 0x0 KECCAK256 SWAP1 JUMPDEST DUP2 SLOAD DUP2 MSTORE SWAP1 PUSH1 0x1 ADD SWAP1 PUSH1 0x20 ADD DUP1 DUP4 GT PUSH2 0x10B8 JUMPI DUP3 SWAP1 SUB PUSH1 0x1F AND DUP3 ADD SWAP2 JUMPDEST POP POP POP POP POP SWAP1 DUP1 PUSH1 0x3 ADD SLOAD SWAP1 DUP1 PUSH1 0x4 ADD SLOAD SWAP1 DUP1 PUSH1 0x5 ADD SLOAD SWAP1 POP DUP7 JUMP JUMPDEST PUSH1 0x1 PUSH1 0x1 PUSH1 0xA0 SHL SUB DUP3 AND CALLER EQ ISZERO PUSH2 0x114A JUMPI PUSH1 0x40 MLOAD PUSH3 0x461BCD PUSH1 0xE5 SHL DUP2 MSTORE PUSH1 0x20 PUSH1 0x4 DUP3 ADD MSTORE PUSH1 0x19 PUSH1 0x24 DUP3 ADD MSTORE PUSH32 0x4552433732313A20617070726F766520746F2063616C6C657200000000000000 PUSH1 0x44 DUP3 ADD MSTORE PUSH1 0x64 ADD PUSH2 0x723 JUMP JUMPDEST CALLER PUSH1 0x0 DUP2 DUP2 MSTORE PUSH1 0x5 PUSH1 0x20 SWAP1 DUP2 MSTORE PUSH1 0x40 DUP1 DUP4 KECCAK256 PUSH1 0x1 PUSH1 0x1 PUSH1 0xA0 SHL SUB DUP8 AND DUP1 DUP6 MSTORE SWAP1 DUP4 MSTORE SWAP3 DUP2 SWAP1 KECCAK256 DUP1 SLOAD PUSH1 0xFF NOT AND DUP7 ISZERO ISZERO SWAP1 DUP2 OR SWAP1 SWAP2 SSTORE SWAP1 MLOAD SWAP1 DUP2 MSTORE SWAP2 SWAP3 SWAP2 PUSH32 0x17307EAB39AB6107E8899845AD3D59BD9653F200F220920489CA2B5937696C31 SWAP2 ADD PUSH1 0x40 MLOAD DUP1 SWAP2 SUB SWAP1 LOG3 POP POP JUMP JUMPDEST PUSH1 0x8 DUP1 SLOAD DUP2 SWAP1 PUSH2 0x11C5 SWAP1 PUSH2 0x2CB0 JUMP JUMPDEST DUP1 PUSH1 0x1F ADD PUSH1 0x20 DUP1 SWAP2 DIV MUL PUSH1 0x20 ADD PUSH1 0x40 MLOAD SWAP1 DUP2 ADD PUSH1 0x40 MSTORE DUP1 SWAP3 SWAP2 SWAP1 DUP2 DUP2 MSTORE PUSH1 0x20 ADD DUP3 DUP1 SLOAD PUSH2 0x11F1 SWAP1 PUSH2 0x2CB0 JUMP JUMPDEST DUP1 ISZERO PUSH2 0x123E JUMPI DUP1 PUSH1 0x1F LT PUSH2 0x1213 JUMPI PUSH2 0x100 DUP1 DUP4 SLOAD DIV MUL DUP4 MSTORE SWAP2 PUSH1 0x20 ADD SWAP2 PUSH2 0x123E JUMP JUMPDEST DUP3 ADD SWAP2 SWAP1 PUSH1 0x0 MSTORE PUSH1 0x20 PUSH1 0x0 KECCAK256 SWAP1 JUMPDEST DUP2 SLOAD DUP2 MSTORE SWAP1 PUSH1 0x1 ADD SWAP1 PUSH1 0x20 ADD DUP1 DUP4 GT PUSH2 0x1221 JUMPI DUP3 SWAP1 SUB PUSH1 0x1F AND DUP3 ADD SWAP2 JUMPDEST POP POP POP POP POP SWAP1 DUP1 PUSH1 0x1 ADD DUP1 SLOAD PUSH2 0x1253 SWAP1 PUSH2 0x2CB0 JUMP JUMPDEST DUP1 PUSH1 0x1F ADD PUSH1 0x20 DUP1 SWAP2 DIV MUL PUSH1 0x20 ADD PUSH1 0x40 MLOAD SWAP1 DUP2 ADD PUSH1 0x40 MSTORE DUP1 SWAP3 SWAP2 SWAP1 DUP2 DUP2 MSTORE PUSH1 0x20 ADD DUP3 DUP1 SLOAD PUSH2 0x127F SWAP1 PUSH2 0x2CB0 JUMP JUMPDEST DUP1 ISZERO PUSH2 0x12CC JUMPI DUP1 PUSH1 0x1F LT PUSH2 0x12A1 JUMPI PUSH2 0x100 DUP1 DUP4 SLOAD DIV MUL DUP4 MSTORE SWAP2 PUSH1 0x20 ADD SWAP2 PUSH2 0x12CC JUMP JUMPDEST DUP3 ADD SWAP2 SWAP1 PUSH1 0x0 MSTORE PUSH1 0x20 PUSH1 0x0 KECCAK256 SWAP1 JUMPDEST DUP2 SLOAD DUP2 MSTORE SWAP1 PUSH1 0x1 ADD SWAP1 PUSH1 0x20 ADD DUP1 DUP4 GT PUSH2 0x12AF JUMPI DUP3 SWAP1 SUB PUSH1 0x1F AND DUP3 ADD SWAP2 JUMPDEST POP POP POP POP POP SWAP1 DUP1 PUSH1 0x2 ADD SLOAD SWAP1 DUP1 PUSH1 0x3 ADD SLOAD SWAP1 DUP1 PUSH1 0x4 ADD SLOAD SWAP1 POP DUP6 JUMP JUMPDEST PUSH2 0x12F2 CALLER DUP4 PUSH2 0x1CDA JUMP JUMPDEST PUSH2 0x130E JUMPI PUSH1 0x40 MLOAD PUSH3 0x461BCD PUSH1 0xE5 SHL DUP2 MSTORE PUSH1 0x4 ADD PUSH2 0x723 SWAP1 PUSH2 0x2CE5 JUMP JUMPDEST PUSH2 0x131A DUP5 DUP5 DUP5 DUP5 PUSH2 0x1F71 JUMP JUMPDEST POP POP POP POP JUMP JUMPDEST PUSH1 0x0 DUP2 DUP2 MSTORE PUSH1 0x10 PUSH1 0x20 SWAP1 DUP2 MSTORE PUSH1 0x40 DUP1 DUP4 KECCAK256 DUP2 MLOAD PUSH1 0xC0 DUP2 ADD SWAP1 SWAP3 MSTORE DUP1 SLOAD DUP3 MSTORE PUSH1 0x1 DUP2 ADD DUP1 SLOAD PUSH1 0x60 SWAP6 SWAP5 DUP5 ADD SWAP2 SWAP1 PUSH2 0x1355 SWAP1 PUSH2 0x2CB0 JUMP JUMPDEST DUP1 PUSH1 0x1F ADD PUSH1 0x20 DUP1 SWAP2 DIV MUL PUSH1 0x20 ADD PUSH1 0x40 MLOAD SWAP1 DUP2 ADD PUSH1 0x40 MSTORE DUP1 SWAP3 SWAP2 SWAP1 DUP2 DUP2 MSTORE PUSH1 0x20 ADD DUP3 DUP1 SLOAD PUSH2 0x1381 SWAP1 PUSH2 0x2CB0 JUMP JUMPDEST DUP1 ISZERO PUSH2 0x13CE JUMPI DUP1 PUSH1 0x1F LT PUSH2 0x13A3 JUMPI PUSH2 0x100 DUP1 DUP4 SLOAD DIV MUL DUP4 MSTORE SWAP2 PUSH1 0x20 ADD SWAP2 PUSH2 0x13CE JUMP JUMPDEST DUP3 ADD SWAP2 SWAP1 PUSH1 0x0 MSTORE PUSH1 0x20 PUSH1 0x0 KECCAK256 SWAP1 JUMPDEST DUP2 SLOAD DUP2 MSTORE SWAP1 PUSH1 0x1 ADD SWAP1 PUSH1 0x20 ADD DUP1 DUP4 GT PUSH2 0x13B1 JUMPI DUP3 SWAP1 SUB PUSH1 0x1F AND DUP3 ADD SWAP2 JUMPDEST POP POP POP POP POP DUP2 MSTORE PUSH1 0x20 ADD PUSH1 0x2 DUP3 ADD DUP1 SLOAD PUSH2 0x13E7 SWAP1 PUSH2 0x2CB0 JUMP JUMPDEST DUP1 PUSH1 0x1F ADD PUSH1 0x20 DUP1 SWAP2 DIV MUL PUSH1 0x20 ADD PUSH1 0x40 MLOAD SWAP1 DUP2 ADD PUSH1 0x40 MSTORE DUP1 SWAP3 SWAP2 SWAP1 DUP2 DUP2 MSTORE PUSH1 0x20 ADD DUP3 DUP1 SLOAD PUSH2 0x1413 SWAP1 PUSH2 0x2CB0 JUMP JUMPDEST DUP1 ISZERO PUSH2 0x1460 JUMPI DUP1 PUSH1 0x1F LT PUSH2 0x1435 JUMPI PUSH2 0x100 DUP1 DUP4 SLOAD DIV MUL DUP4 MSTORE SWAP2 PUSH1 0x20 ADD SWAP2 PUSH2 0x1460 JUMP JUMPDEST DUP3 ADD SWAP2 SWAP1 PUSH1 0x0 MSTORE PUSH1 0x20 PUSH1 0x0 KECCAK256 SWAP1 JUMPDEST DUP2 SLOAD DUP2 MSTORE SWAP1 PUSH1 0x1 ADD SWAP1 PUSH1 0x20 ADD DUP1 DUP4 GT PUSH2 0x1443 JUMPI DUP3 SWAP1 SUB PUSH1 0x1F AND DUP3 ADD SWAP2 JUMPDEST POP POP POP POP POP DUP2 MSTORE PUSH1 0x20 ADD PUSH1 0x3 DUP3 ADD SLOAD DUP2 MSTORE PUSH1 0x20 ADD PUSH1 0x4 DUP3 ADD SLOAD DUP2 MSTORE PUSH1 0x20 ADD PUSH1 0x5 DUP3 ADD SLOAD DUP2 MSTORE POP POP SWAP1 POP PUSH1 0x0 PUSH2 0x1498 DUP3 PUSH1 0x60 ADD MLOAD PUSH2 0x1FA4 JUMP JUMPDEST SWAP1 POP PUSH1 0x0 PUSH2 0x14A9 DUP4 PUSH1 0x80 ADD MLOAD PUSH2 0x1FA4 JUMP JUMPDEST SWAP1 POP PUSH1 0x0 PUSH2 0x14BA DUP5 PUSH1 0xA0 ADD MLOAD PUSH2 0x1FA4 JUMP JUMPDEST SWAP1 POP PUSH1 0x0 PUSH2 0x1500 DUP6 PUSH1 0x20 ADD MLOAD PUSH2 0x14CF DUP10 PUSH2 0x1FA4 JUMP JUMPDEST DUP8 PUSH1 0x40 ADD MLOAD DUP8 DUP8 DUP8 PUSH1 0x40 MLOAD PUSH1 0x20 ADD PUSH2 0x14EC SWAP7 SWAP6 SWAP5 SWAP4 SWAP3 SWAP2 SWAP1 PUSH2 0x2E0E JUMP JUMPDEST PUSH1 0x40 MLOAD PUSH1 0x20 DUP2 DUP4 SUB SUB DUP2 MSTORE SWAP1 PUSH1 0x40 MSTORE PUSH2 0x20A2 JUMP JUMPDEST SWAP1 POP PUSH1 0x0 DUP2 PUSH1 0x40 MLOAD PUSH1 0x20 ADD PUSH2 0x1515 SWAP2 SWAP1 PUSH2 0x2F9A JUMP JUMPDEST PUSH1 0x40 DUP1 MLOAD PUSH1 0x1F NOT DUP2 DUP5 SUB ADD DUP2 MSTORE SWAP2 SWAP1 MSTORE SWAP9 SWAP8 POP POP POP POP POP POP POP POP JUMP JUMPDEST PUSH1 0x1 PUSH1 0x1 PUSH1 0xA0 SHL SUB DUP2 AND PUSH1 0x0 SWAP1 DUP2 MSTORE PUSH1 0x11 PUSH1 0x20 MSTORE PUSH1 0x40 DUP2 KECCAK256 SLOAD DUP1 ISZERO PUSH2 0x1559 JUMPI POP PUSH1 0x1 SWAP3 SWAP2 POP POP JUMP JUMPDEST POP PUSH1 0x0 SWAP3 SWAP2 POP POP JUMP JUMPDEST PUSH2 0x156B CALLER PUSH2 0x1531 JUMP JUMPDEST ISZERO ISZERO PUSH1 0x1 EQ PUSH2 0x15B5 JUMPI PUSH1 0x40 MLOAD PUSH3 0x461BCD PUSH1 0xE5 SHL DUP2 MSTORE PUSH1 0x20 PUSH1 0x4 DUP3 ADD MSTORE PUSH1 0x16 PUSH1 0x24 DUP3 ADD MSTORE PUSH22 0x596F75277265206E6F742074686520706C6179657221 PUSH1 0x50 SHL PUSH1 0x44 DUP3 ADD MSTORE PUSH1 0x64 ADD PUSH2 0x723 JUMP JUMPDEST CALLER PUSH1 0x0 SWAP1 DUP2 MSTORE PUSH1 0x11 PUSH1 0x20 SWAP1 DUP2 MSTORE PUSH1 0x40 DUP1 DUP4 KECCAK256 SLOAD DUP1 DUP5 MSTORE PUSH1 0x10 SWAP1 SWAP3 MSTORE SWAP1 SWAP2 KECCAK256 PUSH1 0x3 DUP2 ADD SLOAD PUSH2 0x161C JUMPI PUSH1 0x40 MLOAD PUSH3 0x461BCD PUSH1 0xE5 SHL DUP2 MSTORE PUSH1 0x20 PUSH1 0x4 DUP3 ADD MSTORE PUSH1 0x15 PUSH1 0x24 DUP3 ADD MSTORE PUSH21 0x1C1B185E595C881A185CC81B9BC81214081B19599D PUSH1 0x5A SHL PUSH1 0x44 DUP3 ADD MSTORE PUSH1 0x64 ADD PUSH2 0x723 JUMP JUMPDEST PUSH1 0xA SLOAD PUSH2 0x166B JUMPI PUSH1 0x40 MLOAD PUSH3 0x461BCD PUSH1 0xE5 SHL DUP2 MSTORE PUSH1 0x20 PUSH1 0x4 DUP3 ADD MSTORE PUSH1 0x18 PUSH1 0x24 DUP3 ADD MSTORE PUSH32 0x42696720426F737320697320616C726561647920646561640000000000000000 PUSH1 0x44 DUP3 ADD MSTORE PUSH1 0x64 ADD PUSH2 0x723 JUMP JUMPDEST PUSH1 0x0 DUP1 PUSH2 0x167B DUP4 PUSH1 0x5 ADD SLOAD PUSH2 0x2208 JUMP JUMPDEST SWAP2 POP SWAP2 POP DUP2 PUSH1 0x8 PUSH1 0x2 ADD SLOAD LT ISZERO PUSH2 0x1696 JUMPI PUSH1 0x0 PUSH1 0xA SSTORE PUSH2 0x16A8 JUMP JUMPDEST PUSH1 0xA SLOAD PUSH2 0x16A4 SWAP1 DUP4 SWAP1 PUSH2 0x2FDF JUMP JUMPDEST PUSH1 0xA SSTORE JUMPDEST PUSH1 0xC SLOAD PUSH1 0x3 DUP5 ADD SLOAD LT ISZERO PUSH2 0x16C2 JUMPI PUSH1 0x0 PUSH1 0x3 DUP5 ADD SSTORE PUSH2 0x16DA JUMP JUMPDEST PUSH1 0xC SLOAD PUSH1 0x3 DUP5 ADD SLOAD PUSH2 0x16D4 SWAP2 SWAP1 PUSH2 0x2FDF JUMP JUMPDEST PUSH1 0x3 DUP5 ADD SSTORE JUMPDEST PUSH1 0xA SLOAD PUSH1 0x3 DUP5 ADD SLOAD PUSH1 0x40 DUP1 MLOAD SWAP3 DUP4 MSTORE PUSH1 0x20 DUP4 ADD SWAP2 SWAP1 SWAP2 MSTORE DUP2 ADD DUP4 SWAP1 MSTORE PUSH1 0xFF DUP3 AND PUSH1 0x60 DUP3 ADD MSTORE PUSH32 0x893BBCFC9BAF7EB2B76A5A971EE475DA464AEB53AB5EACC729AB09EA477C477B SWAP1 PUSH1 0x80 ADD PUSH1 0x40 MLOAD DUP1 SWAP2 SUB SWAP1 LOG1 POP POP POP POP JUMP JUMPDEST PUSH2 0x173B CALLER PUSH2 0x1531 JUMP JUMPDEST ISZERO PUSH2 0x1781 JUMPI PUSH1 0x40 MLOAD PUSH3 0x461BCD PUSH1 0xE5 SHL DUP2 MSTORE PUSH1 0x20 PUSH1 0x4 DUP3 ADD MSTORE PUSH1 0x16 PUSH1 0x24 DUP3 ADD MSTORE PUSH22 0x155CD95C88185B1C9958591E481A185CC81848139195 PUSH1 0x52 SHL PUSH1 0x44 DUP3 ADD MSTORE PUSH1 0x64 ADD PUSH2 0x723 JUMP JUMPDEST PUSH1 0x0 PUSH2 0x178C PUSH1 0x6 SLOAD SWAP1 JUMP JUMPDEST SWAP1 POP PUSH2 0x1798 CALLER DUP3 PUSH2 0x2275 JUMP JUMPDEST PUSH1 0x40 MLOAD DUP1 PUSH1 0xC0 ADD PUSH1 0x40 MSTORE DUP1 DUP4 DUP2 MSTORE PUSH1 0x20 ADD PUSH1 0xF DUP5 DUP2 SLOAD DUP2 LT PUSH2 0x17BC JUMPI PUSH2 0x17BC PUSH2 0x2D65 JUMP JUMPDEST SWAP1 PUSH1 0x0 MSTORE PUSH1 0x20 PUSH1 0x0 KECCAK256 SWAP1 PUSH1 0x6 MUL ADD PUSH1 0x1 ADD DUP1 SLOAD PUSH2 0x17D8 SWAP1 PUSH2 0x2CB0 JUMP JUMPDEST DUP1 PUSH1 0x1F ADD PUSH1 0x20 DUP1 SWAP2 DIV MUL PUSH1 0x20 ADD PUSH1 0x40 MLOAD SWAP1 DUP2 ADD PUSH1 0x40 MSTORE DUP1 SWAP3 SWAP2 SWAP1 DUP2 DUP2 MSTORE PUSH1 0x20 ADD DUP3 DUP1 SLOAD PUSH2 0x1804 SWAP1 PUSH2 0x2CB0 JUMP JUMPDEST DUP1 ISZERO PUSH2 0x1851 JUMPI DUP1 PUSH1 0x1F LT PUSH2 0x1826 JUMPI PUSH2 0x100 DUP1 DUP4 SLOAD DIV MUL DUP4 MSTORE SWAP2 PUSH1 0x20 ADD SWAP2 PUSH2 0x1851 JUMP JUMPDEST DUP3 ADD SWAP2 SWAP1 PUSH1 0x0 MSTORE PUSH1 0x20 PUSH1 0x0 KECCAK256 SWAP1 JUMPDEST DUP2 SLOAD DUP2 MSTORE SWAP1 PUSH1 0x1 ADD SWAP1 PUSH1 0x20 ADD DUP1 DUP4 GT PUSH2 0x1834 JUMPI DUP3 SWAP1 SUB PUSH1 0x1F AND DUP3 ADD SWAP2 JUMPDEST POP POP POP POP POP DUP2 MSTORE PUSH1 0x20 ADD PUSH1 0xF DUP5 DUP2 SLOAD DUP2 LT PUSH2 0x186E JUMPI PUSH2 0x186E PUSH2 0x2D65 JUMP JUMPDEST SWAP1 PUSH1 0x0 MSTORE PUSH1 0x20 PUSH1 0x0 KECCAK256 SWAP1 PUSH1 0x6 MUL ADD PUSH1 0x2 ADD DUP1 SLOAD PUSH2 0x188A SWAP1 PUSH2 0x2CB0 JUMP JUMPDEST DUP1 PUSH1 0x1F ADD PUSH1 0x20 DUP1 SWAP2 DIV MUL PUSH1 0x20 ADD PUSH1 0x40 MLOAD SWAP1 DUP2 ADD PUSH1 0x40 MSTORE DUP1 SWAP3 SWAP2 SWAP1 DUP2 DUP2 MSTORE PUSH1 0x20 ADD DUP3 DUP1 SLOAD PUSH2 0x18B6 SWAP1 PUSH2 0x2CB0 JUMP JUMPDEST DUP1 ISZERO PUSH2 0x1903 JUMPI DUP1 PUSH1 0x1F LT PUSH2 0x18D8 JUMPI PUSH2 0x100 DUP1 DUP4 SLOAD DIV MUL DUP4 MSTORE SWAP2 PUSH1 0x20 ADD SWAP2 PUSH2 0x1903 JUMP JUMPDEST DUP3 ADD SWAP2 SWAP1 PUSH1 0x0 MSTORE PUSH1 0x20 PUSH1 0x0 KECCAK256 SWAP1 JUMPDEST DUP2 SLOAD DUP2 MSTORE SWAP1 PUSH1 0x1 ADD SWAP1 PUSH1 0x20 ADD DUP1 DUP4 GT PUSH2 0x18E6 JUMPI DUP3 SWAP1 SUB PUSH1 0x1F AND DUP3 ADD SWAP2 JUMPDEST POP POP POP POP POP DUP2 MSTORE PUSH1 0x20 ADD PUSH1 0xF DUP5 DUP2 SLOAD DUP2 LT PUSH2 0x1920 JUMPI PUSH2 0x1920 PUSH2 0x2D65 JUMP JUMPDEST SWAP1 PUSH1 0x0 MSTORE PUSH1 0x20 PUSH1 0x0 KECCAK256 SWAP1 PUSH1 0x6 MUL ADD PUSH1 0x3 ADD SLOAD DUP2 MSTORE PUSH1 0x20 ADD PUSH1 0xF DUP5 DUP2 SLOAD DUP2 LT PUSH2 0x194A JUMPI PUSH2 0x194A PUSH2 0x2D65 JUMP JUMPDEST SWAP1 PUSH1 0x0 MSTORE PUSH1 0x20 PUSH1 0x0 KECCAK256 SWAP1 PUSH1 0x6 MUL ADD PUSH1 0x4 ADD SLOAD DUP2 MSTORE PUSH1 0x20 ADD PUSH1 0xF DUP5 DUP2 SLOAD DUP2 LT PUSH2 0x1974 JUMPI PUSH2 0x1974 PUSH2 0x2D65 JUMP JUMPDEST PUSH1 0x0 SWAP2 DUP3 MSTORE PUSH1 0x20 DUP1 DUP4 KECCAK256 PUSH1 0x5 PUSH1 0x6 SWAP1 SWAP4 MUL ADD SWAP2 SWAP1 SWAP2 ADD SLOAD SWAP1 SWAP3 MSTORE DUP4 DUP2 MSTORE PUSH1 0x10 DUP3 MSTORE PUSH1 0x40 SWAP1 KECCAK256 DUP3 MLOAD DUP2 SSTORE DUP3 DUP3 ADD MLOAD DUP1 MLOAD SWAP2 SWAP3 PUSH2 0x19B7 SWAP3 PUSH1 0x1 DUP6 ADD SWAP3 SWAP1 SWAP2 ADD SWAP1 PUSH2 0x2502 JUMP JUMPDEST POP PUSH1 0x40 DUP3 ADD MLOAD DUP1 MLOAD PUSH2 0x19D3 SWAP2 PUSH1 0x2 DUP5 ADD SWAP2 PUSH1 0x20 SWAP1 SWAP2 ADD SWAP1 PUSH2 0x2502 JUMP JUMPDEST POP PUSH1 0x60 DUP3 DUP2 ADD MLOAD PUSH1 0x3 DUP4 ADD SSTORE PUSH1 0x80 DUP4 ADD MLOAD PUSH1 0x4 DUP4 ADD SSTORE PUSH1 0xA0 SWAP1 SWAP3 ADD MLOAD PUSH1 0x5 SWAP1 SWAP2 ADD SSTORE CALLER PUSH1 0x0 DUP2 DUP2 MSTORE PUSH1 0x11 PUSH1 0x20 SWAP1 DUP2 MSTORE PUSH1 0x40 SWAP2 DUP3 SWAP1 KECCAK256 DUP6 SWAP1 SSTORE DUP2 MLOAD SWAP3 DUP4 MSTORE DUP3 ADD DUP5 SWAP1 MSTORE DUP2 ADD DUP5 SWAP1 MSTORE PUSH32 0x4BC303FD457A97B4691B9AF582CE71868A3D258638C8D4F8C60988A0F0BFB8CD SWAP2 ADD PUSH1 0x40 MLOAD DUP1 SWAP2 SUB SWAP1 LOG1 PUSH2 0xA2E PUSH1 0x6 DUP1 SLOAD PUSH1 0x1 ADD SWAP1 SSTORE JUMP JUMPDEST PUSH2 0x1A8C PUSH1 0x40 MLOAD DUP1 PUSH1 0xC0 ADD PUSH1 0x40 MSTORE DUP1 PUSH1 0x0 DUP2 MSTORE PUSH1 0x20 ADD PUSH1 0x60 DUP2 MSTORE PUSH1 0x20 ADD PUSH1 0x60 DUP2 MSTORE PUSH1 0x20 ADD PUSH1 0x0 DUP2 MSTORE PUSH1 0x20 ADD PUSH1 0x0 DUP2 MSTORE PUSH1 0x20 ADD PUSH1 0x0 DUP2 MSTORE POP SWAP1 JUMP JUMPDEST PUSH1 0x1 PUSH1 0x1 PUSH1 0xA0 SHL SUB DUP3 AND PUSH1 0x0 SWAP1 DUP2 MSTORE PUSH1 0x11 PUSH1 0x20 MSTORE PUSH1 0x40 SWAP1 KECCAK256 SLOAD DUP1 ISZERO PUSH2 0x1C1D JUMPI PUSH1 0x10 PUSH1 0x0 DUP3 DUP2 MSTORE PUSH1 0x20 ADD SWAP1 DUP2 MSTORE PUSH1 0x20 ADD PUSH1 0x0 KECCAK256 PUSH1 0x40 MLOAD DUP1 PUSH1 0xC0 ADD PUSH1 0x40 MSTORE SWAP1 DUP2 PUSH1 0x0 DUP3 ADD SLOAD DUP2 MSTORE PUSH1 0x20 ADD PUSH1 0x1 DUP3 ADD DUP1 SLOAD PUSH2 0x1AE3 SWAP1 PUSH2 0x2CB0 JUMP JUMPDEST DUP1 PUSH1 0x1F ADD PUSH1 0x20 DUP1 SWAP2 DIV MUL PUSH1 0x20 ADD PUSH1 0x40 MLOAD SWAP1 DUP2 ADD PUSH1 0x40 MSTORE DUP1 SWAP3 SWAP2 SWAP1 DUP2 DUP2 MSTORE PUSH1 0x20 ADD DUP3 DUP1 SLOAD PUSH2 0x1B0F SWAP1 PUSH2 0x2CB0 JUMP JUMPDEST DUP1 ISZERO PUSH2 0x1B5C JUMPI DUP1 PUSH1 0x1F LT PUSH2 0x1B31 JUMPI PUSH2 0x100 DUP1 DUP4 SLOAD DIV MUL DUP4 MSTORE SWAP2 PUSH1 0x20 ADD SWAP2 PUSH2 0x1B5C JUMP JUMPDEST DUP3 ADD SWAP2 SWAP1 PUSH1 0x0 MSTORE PUSH1 0x20 PUSH1 0x0 KECCAK256 SWAP1 JUMPDEST DUP2 SLOAD DUP2 MSTORE SWAP1 PUSH1 0x1 ADD SWAP1 PUSH1 0x20 ADD DUP1 DUP4 GT PUSH2 0x1B3F JUMPI DUP3 SWAP1 SUB PUSH1 0x1F AND DUP3 ADD SWAP2 JUMPDEST POP POP POP POP POP DUP2 MSTORE PUSH1 0x20 ADD PUSH1 0x2 DUP3 ADD DUP1 SLOAD PUSH2 0x1B75 SWAP1 PUSH2 0x2CB0 JUMP JUMPDEST DUP1 PUSH1 0x1F ADD PUSH1 0x20 DUP1 SWAP2 DIV MUL PUSH1 0x20 ADD PUSH1 0x40 MLOAD SWAP1 DUP2 ADD PUSH1 0x40 MSTORE DUP1 SWAP3 SWAP2 SWAP1 DUP2 DUP2 MSTORE PUSH1 0x20 ADD DUP3 DUP1 SLOAD PUSH2 0x1BA1 SWAP1 PUSH2 0x2CB0 JUMP JUMPDEST DUP1 ISZERO PUSH2 0x1BEE JUMPI DUP1 PUSH1 0x1F LT PUSH2 0x1BC3 JUMPI PUSH2 0x100 DUP1 DUP4 SLOAD DIV MUL DUP4 MSTORE SWAP2 PUSH1 0x20 ADD SWAP2 PUSH2 0x1BEE JUMP JUMPDEST DUP3 ADD SWAP2 SWAP1 PUSH1 0x0 MSTORE PUSH1 0x20 PUSH1 0x0 KECCAK256 SWAP1 JUMPDEST DUP2 SLOAD DUP2 MSTORE SWAP1 PUSH1 0x1 ADD SWAP1 PUSH1 0x20 ADD DUP1 DUP4 GT PUSH2 0x1BD1 JUMPI DUP3 SWAP1 SUB PUSH1 0x1F AND DUP3 ADD SWAP2 JUMPDEST POP POP POP POP POP DUP2 MSTORE PUSH1 0x20 ADD PUSH1 0x3 DUP3 ADD SLOAD DUP2 MSTORE PUSH1 0x20 ADD PUSH1 0x4 DUP3 ADD SLOAD DUP2 MSTORE PUSH1 0x20 ADD PUSH1 0x5 DUP3 ADD SLOAD DUP2 MSTORE POP POP SWAP2 POP POP SWAP2 SWAP1 POP JUMP JUMPDEST PUSH2 0x1C56 PUSH1 0x40 MLOAD DUP1 PUSH1 0xC0 ADD PUSH1 0x40 MSTORE DUP1 PUSH1 0x0 DUP2 MSTORE PUSH1 0x20 ADD PUSH1 0x60 DUP2 MSTORE PUSH1 0x20 ADD PUSH1 0x60 DUP2 MSTORE PUSH1 0x20 ADD PUSH1 0x0 DUP2 MSTORE PUSH1 0x20 ADD PUSH1 0x0 DUP2 MSTORE PUSH1 0x20 ADD PUSH1 0x0 DUP2 MSTORE POP SWAP1 JUMP JUMPDEST SWAP4 SWAP3 POP POP POP JUMP JUMPDEST POP SWAP2 SWAP1 POP JUMP JUMPDEST DUP1 SLOAD PUSH1 0x1 ADD SWAP1 SSTORE JUMP JUMPDEST PUSH1 0x0 DUP2 DUP2 MSTORE PUSH1 0x4 PUSH1 0x20 MSTORE PUSH1 0x40 SWAP1 KECCAK256 DUP1 SLOAD PUSH1 0x1 PUSH1 0x1 PUSH1 0xA0 SHL SUB NOT AND PUSH1 0x1 PUSH1 0x1 PUSH1 0xA0 SHL SUB DUP5 AND SWAP1 DUP2 OR SWAP1 SWAP2 SSTORE DUP2 SWAP1 PUSH2 0x1CA1 DUP3 PUSH2 0xA89 JUMP JUMPDEST PUSH1 0x1 PUSH1 0x1 PUSH1 0xA0 SHL SUB AND PUSH32 0x8C5BE1E5EBEC7D5BD14F71427D1E84F3DD0314C0F7B2291E5B200AC8C7C3B925 PUSH1 0x40 MLOAD PUSH1 0x40 MLOAD DUP1 SWAP2 SUB SWAP1 LOG4 POP POP JUMP JUMPDEST PUSH1 0x0 DUP2 DUP2 MSTORE PUSH1 0x2 PUSH1 0x20 MSTORE PUSH1 0x40 DUP2 KECCAK256 SLOAD PUSH1 0x1 PUSH1 0x1 PUSH1 0xA0 SHL SUB AND PUSH2 0x1D53 JUMPI PUSH1 0x40 MLOAD PUSH3 0x461BCD PUSH1 0xE5 SHL DUP2 MSTORE PUSH1 0x20 PUSH1 0x4 DUP3 ADD MSTORE PUSH1 0x2C PUSH1 0x24 DUP3 ADD MSTORE PUSH32 0x4552433732313A206F70657261746F7220717565727920666F72206E6F6E6578 PUSH1 0x44 DUP3 ADD MSTORE PUSH12 0x34B9BA32B73A103A37B5B2B7 PUSH1 0xA1 SHL PUSH1 0x64 DUP3 ADD MSTORE PUSH1 0x84 ADD PUSH2 0x723 JUMP JUMPDEST PUSH1 0x0 PUSH2 0x1D5E DUP4 PUSH2 0xA89 JUMP JUMPDEST SWAP1 POP DUP1 PUSH1 0x1 PUSH1 0x1 PUSH1 0xA0 SHL SUB AND DUP5 PUSH1 0x1 PUSH1 0x1 PUSH1 0xA0 SHL SUB AND EQ DUP1 PUSH2 0x1D99 JUMPI POP DUP4 PUSH1 0x1 PUSH1 0x1 PUSH1 0xA0 SHL SUB AND PUSH2 0x1D8E DUP5 PUSH2 0x6AE JUMP JUMPDEST PUSH1 0x1 PUSH1 0x1 PUSH1 0xA0 SHL SUB AND EQ JUMPDEST DUP1 PUSH2 0x1DC9 JUMPI POP PUSH1 0x1 PUSH1 0x1 PUSH1 0xA0 SHL SUB DUP1 DUP3 AND PUSH1 0x0 SWAP1 DUP2 MSTORE PUSH1 0x5 PUSH1 0x20 SWAP1 DUP2 MSTORE PUSH1 0x40 DUP1 DUP4 KECCAK256 SWAP4 DUP9 AND DUP4 MSTORE SWAP3 SWAP1 MSTORE KECCAK256 SLOAD PUSH1 0xFF AND JUMPDEST SWAP5 SWAP4 POP POP POP POP JUMP JUMPDEST DUP3 PUSH1 0x1 PUSH1 0x1 PUSH1 0xA0 SHL SUB AND PUSH2 0x1DE4 DUP3 PUSH2 0xA89 JUMP JUMPDEST PUSH1 0x1 PUSH1 0x1 PUSH1 0xA0 SHL SUB AND EQ PUSH2 0x1E4C JUMPI PUSH1 0x40 MLOAD PUSH3 0x461BCD PUSH1 0xE5 SHL DUP2 MSTORE PUSH1 0x20 PUSH1 0x4 DUP3 ADD MSTORE PUSH1 0x29 PUSH1 0x24 DUP3 ADD MSTORE PUSH32 0x4552433732313A207472616E73666572206F6620746F6B656E20746861742069 PUSH1 0x44 DUP3 ADD MSTORE PUSH9 0x39903737BA1037BBB7 PUSH1 0xB9 SHL PUSH1 0x64 DUP3 ADD MSTORE PUSH1 0x84 ADD PUSH2 0x723 JUMP JUMPDEST PUSH1 0x1 PUSH1 0x1 PUSH1 0xA0 SHL SUB DUP3 AND PUSH2 0x1EAE JUMPI PUSH1 0x40 MLOAD PUSH3 0x461BCD PUSH1 0xE5 SHL DUP2 MSTORE PUSH1 0x20 PUSH1 0x4 DUP3 ADD MSTORE PUSH1 0x24 DUP1 DUP3 ADD MSTORE PUSH32 0x4552433732313A207472616E7366657220746F20746865207A65726F20616464 PUSH1 0x44 DUP3 ADD MSTORE PUSH4 0x72657373 PUSH1 0xE0 SHL PUSH1 0x64 DUP3 ADD MSTORE PUSH1 0x84 ADD PUSH2 0x723 JUMP JUMPDEST PUSH2 0x1EB9 PUSH1 0x0 DUP3 PUSH2 0x1C6C JUMP JUMPDEST PUSH1 0x1 PUSH1 0x1 PUSH1 0xA0 SHL SUB DUP4 AND PUSH1 0x0 SWAP1 DUP2 MSTORE PUSH1 0x3 PUSH1 0x20 MSTORE PUSH1 0x40 DUP2 KECCAK256 DUP1 SLOAD PUSH1 0x1 SWAP3 SWAP1 PUSH2 0x1EE2 SWAP1 DUP5 SWAP1 PUSH2 0x2FDF JUMP JUMPDEST SWAP1 SWAP2 SSTORE POP POP PUSH1 0x1 PUSH1 0x1 PUSH1 0xA0 SHL SUB DUP3 AND PUSH1 0x0 SWAP1 DUP2 MSTORE PUSH1 0x3 PUSH1 0x20 MSTORE PUSH1 0x40 DUP2 KECCAK256 DUP1 SLOAD PUSH1 0x1 SWAP3 SWAP1 PUSH2 0x1F10 SWAP1 DUP5 SWAP1 PUSH2 0x2D91 JUMP JUMPDEST SWAP1 SWAP2 SSTORE POP POP PUSH1 0x0 DUP2 DUP2 MSTORE PUSH1 0x2 PUSH1 0x20 MSTORE PUSH1 0x40 DUP1 DUP3 KECCAK256 DUP1 SLOAD PUSH1 0x1 PUSH1 0x1 PUSH1 0xA0 SHL SUB NOT AND PUSH1 0x1 PUSH1 0x1 PUSH1 0xA0 SHL SUB DUP7 DUP2 AND SWAP2 DUP3 OR SWAP1 SWAP3 SSTORE SWAP2 MLOAD DUP5 SWAP4 SWAP2 DUP8 AND SWAP2 PUSH32 0xDDF252AD1BE2C89B69C2B068FC378DAA952BA7F163C4A11628F55A4DF523B3EF SWAP2 LOG4 POP POP POP JUMP JUMPDEST PUSH2 0x1F7C DUP5 DUP5 DUP5 PUSH2 0x1DD1 JUMP JUMPDEST PUSH2 0x1F88 DUP5 DUP5 DUP5 DUP5 PUSH2 0x228F JUMP JUMPDEST PUSH2 0x131A JUMPI PUSH1 0x40 MLOAD PUSH3 0x461BCD PUSH1 0xE5 SHL DUP2 MSTORE PUSH1 0x4 ADD PUSH2 0x723 SWAP1 PUSH2 0x2FF6 JUMP JUMPDEST PUSH1 0x60 DUP2 PUSH2 0x1FC8 JUMPI POP POP PUSH1 0x40 DUP1 MLOAD DUP1 DUP3 ADD SWAP1 SWAP2 MSTORE PUSH1 0x1 DUP2 MSTORE PUSH1 0x3 PUSH1 0xFC SHL PUSH1 0x20 DUP3 ADD MSTORE SWAP1 JUMP JUMPDEST DUP2 PUSH1 0x0 JUMPDEST DUP2 ISZERO PUSH2 0x1FF2 JUMPI DUP1 PUSH2 0x1FDC DUP2 PUSH2 0x3048 JUMP JUMPDEST SWAP2 POP PUSH2 0x1FEB SWAP1 POP PUSH1 0xA DUP4 PUSH2 0x2DBF JUMP JUMPDEST SWAP2 POP PUSH2 0x1FCC JUMP JUMPDEST PUSH1 0x0 DUP2 PUSH8 0xFFFFFFFFFFFFFFFF DUP2 GT ISZERO PUSH2 0x200D JUMPI PUSH2 0x200D PUSH2 0x273B JUMP JUMPDEST PUSH1 0x40 MLOAD SWAP1 DUP1 DUP3 MSTORE DUP1 PUSH1 0x1F ADD PUSH1 0x1F NOT AND PUSH1 0x20 ADD DUP3 ADD PUSH1 0x40 MSTORE DUP1 ISZERO PUSH2 0x2037 JUMPI PUSH1 0x20 DUP3 ADD DUP2 DUP1 CALLDATASIZE DUP4 CALLDATACOPY ADD SWAP1 POP JUMPDEST POP SWAP1 POP JUMPDEST DUP5 ISZERO PUSH2 0x1DC9 JUMPI PUSH2 0x204C PUSH1 0x1 DUP4 PUSH2 0x2FDF JUMP JUMPDEST SWAP2 POP PUSH2 0x2059 PUSH1 0xA DUP7 PUSH2 0x3063 JUMP JUMPDEST PUSH2 0x2064 SWAP1 PUSH1 0x30 PUSH2 0x2D91 JUMP JUMPDEST PUSH1 0xF8 SHL DUP2 DUP4 DUP2 MLOAD DUP2 LT PUSH2 0x2079 JUMPI PUSH2 0x2079 PUSH2 0x2D65 JUMP JUMPDEST PUSH1 0x20 ADD ADD SWAP1 PUSH1 0x1 PUSH1 0x1 PUSH1 0xF8 SHL SUB NOT AND SWAP1 DUP2 PUSH1 0x0 BYTE SWAP1 MSTORE8 POP PUSH2 0x209B PUSH1 0xA DUP7 PUSH2 0x2DBF JUMP JUMPDEST SWAP5 POP PUSH2 0x203B JUMP JUMPDEST DUP1 MLOAD PUSH1 0x60 SWAP1 DUP1 PUSH2 0x20C2 JUMPI POP POP PUSH1 0x40 DUP1 MLOAD PUSH1 0x20 DUP2 ADD SWAP1 SWAP2 MSTORE PUSH1 0x0 DUP2 MSTORE SWAP2 SWAP1 POP JUMP JUMPDEST PUSH1 0x0 PUSH1 0x3 PUSH2 0x20D1 DUP4 PUSH1 0x2 PUSH2 0x2D91 JUMP JUMPDEST PUSH2 0x20DB SWAP2 SWAP1 PUSH2 0x2DBF JUMP JUMPDEST PUSH2 0x20E6 SWAP1 PUSH1 0x4 PUSH2 0x2DD3 JUMP JUMPDEST SWAP1 POP PUSH1 0x0 PUSH2 0x20F5 DUP3 PUSH1 0x20 PUSH2 0x2D91 JUMP JUMPDEST PUSH8 0xFFFFFFFFFFFFFFFF DUP2 GT ISZERO PUSH2 0x210D JUMPI PUSH2 0x210D PUSH2 0x273B JUMP JUMPDEST PUSH1 0x40 MLOAD SWAP1 DUP1 DUP3 MSTORE DUP1 PUSH1 0x1F ADD PUSH1 0x1F NOT AND PUSH1 0x20 ADD DUP3 ADD PUSH1 0x40 MSTORE DUP1 ISZERO PUSH2 0x2137 JUMPI PUSH1 0x20 DUP3 ADD DUP2 DUP1 CALLDATASIZE DUP4 CALLDATACOPY ADD SWAP1 POP JUMPDEST POP SWAP1 POP PUSH1 0x0 PUSH1 0x40 MLOAD DUP1 PUSH1 0x60 ADD PUSH1 0x40 MSTORE DUP1 PUSH1 0x40 DUP2 MSTORE PUSH1 0x20 ADD PUSH2 0x30D2 PUSH1 0x40 SWAP2 CODECOPY SWAP1 POP PUSH1 0x1 DUP2 ADD PUSH1 0x20 DUP4 ADD PUSH1 0x0 JUMPDEST DUP7 DUP2 LT ISZERO PUSH2 0x21C3 JUMPI PUSH1 0x3 DUP2 DUP11 ADD DUP2 ADD MLOAD PUSH1 0x3F PUSH1 0x12 DUP3 SWAP1 SHR DUP2 AND DUP7 ADD MLOAD PUSH1 0xC DUP4 SWAP1 SHR DUP3 AND DUP8 ADD MLOAD PUSH1 0x6 DUP5 SWAP1 SHR DUP4 AND DUP9 ADD MLOAD SWAP3 SWAP1 SWAP4 AND DUP8 ADD MLOAD PUSH1 0x8 SWAP2 DUP3 SHL PUSH1 0xFF SWAP5 DUP6 AND ADD DUP3 SHL SWAP3 DUP5 AND SWAP3 SWAP1 SWAP3 ADD SWAP1 SHL SWAP2 AND ADD PUSH1 0xE0 SHL DUP4 MSTORE PUSH1 0x4 SWAP1 SWAP3 ADD SWAP2 ADD PUSH2 0x2162 JUMP JUMPDEST POP PUSH1 0x3 DUP7 MOD PUSH1 0x1 DUP2 EQ PUSH2 0x21DD JUMPI PUSH1 0x2 DUP2 EQ PUSH2 0x21EE JUMPI PUSH2 0x21FA JUMP JUMPDEST PUSH2 0x3D3D PUSH1 0xF0 SHL PUSH1 0x1 NOT DUP4 ADD MSTORE PUSH2 0x21FA JUMP JUMPDEST PUSH1 0x3D PUSH1 0xF8 SHL PUSH1 0x0 NOT DUP4 ADD MSTORE JUMPDEST POP POP POP SWAP2 DUP2 MSTORE SWAP5 SWAP4 POP POP POP POP JUMP JUMPDEST PUSH1 0x0 DUP1 PUSH1 0x0 PUSH1 0xA PUSH2 0x2217 PUSH2 0xA4D JUMP JUMPDEST PUSH2 0x2221 SWAP2 SWAP1 PUSH2 0x3063 JUMP JUMPDEST SWAP1 POP DUP4 PUSH1 0x8 PUSH1 0xFF DUP4 AND LT PUSH2 0x2241 JUMPI PUSH2 0x223A DUP6 PUSH1 0x3 PUSH2 0x2DD3 JUMP JUMPDEST SWAP1 POP PUSH2 0x226C JUMP JUMPDEST PUSH1 0x5 DUP3 PUSH1 0xFF AND LT ISZERO DUP1 ISZERO PUSH2 0x2259 JUMPI POP PUSH1 0x7 DUP3 PUSH1 0xFF AND GT ISZERO JUMPDEST ISZERO PUSH2 0x226C JUMPI PUSH2 0x2269 DUP6 PUSH1 0x2 PUSH2 0x2DD3 JUMP JUMPDEST SWAP1 POP JUMPDEST SWAP5 SWAP1 SWAP4 POP SWAP2 POP POP JUMP JUMPDEST PUSH2 0xA2E DUP3 DUP3 PUSH1 0x40 MLOAD DUP1 PUSH1 0x20 ADD PUSH1 0x40 MSTORE DUP1 PUSH1 0x0 DUP2 MSTORE POP PUSH2 0x238D JUMP JUMPDEST PUSH1 0x0 PUSH1 0x1 PUSH1 0x1 PUSH1 0xA0 SHL SUB DUP5 AND EXTCODESIZE ISZERO PUSH2 0x2382 JUMPI PUSH1 0x40 MLOAD PUSH4 0xA85BD01 PUSH1 0xE1 SHL DUP2 MSTORE PUSH1 0x1 PUSH1 0x1 PUSH1 0xA0 SHL SUB DUP6 AND SWAP1 PUSH4 0x150B7A02 SWAP1 PUSH2 0x22D3 SWAP1 CALLER SWAP1 DUP10 SWAP1 DUP9 SWAP1 DUP9 SWAP1 PUSH1 0x4 ADD PUSH2 0x3077 JUMP JUMPDEST PUSH1 0x20 PUSH1 0x40 MLOAD DUP1 DUP4 SUB DUP2 PUSH1 0x0 DUP8 GAS CALL SWAP3 POP POP POP DUP1 ISZERO PUSH2 0x230E JUMPI POP PUSH1 0x40 DUP1 MLOAD PUSH1 0x1F RETURNDATASIZE SWAP1 DUP2 ADD PUSH1 0x1F NOT AND DUP3 ADD SWAP1 SWAP3 MSTORE PUSH2 0x230B SWAP2 DUP2 ADD SWAP1 PUSH2 0x30B4 JUMP JUMPDEST PUSH1 0x1 JUMPDEST PUSH2 0x2368 JUMPI RETURNDATASIZE DUP1 DUP1 ISZERO PUSH2 0x233C JUMPI PUSH1 0x40 MLOAD SWAP2 POP PUSH1 0x1F NOT PUSH1 0x3F RETURNDATASIZE ADD AND DUP3 ADD PUSH1 0x40 MSTORE RETURNDATASIZE DUP3 MSTORE RETURNDATASIZE PUSH1 0x0 PUSH1 0x20 DUP5 ADD RETURNDATACOPY PUSH2 0x2341 JUMP JUMPDEST PUSH1 0x60 SWAP2 POP JUMPDEST POP DUP1 MLOAD PUSH2 0x2360 JUMPI PUSH1 0x40 MLOAD PUSH3 0x461BCD PUSH1 0xE5 SHL DUP2 MSTORE PUSH1 0x4 ADD PUSH2 0x723 SWAP1 PUSH2 0x2FF6 JUMP JUMPDEST DUP1 MLOAD DUP2 PUSH1 0x20 ADD REVERT JUMPDEST PUSH1 0x1 PUSH1 0x1 PUSH1 0xE0 SHL SUB NOT AND PUSH4 0xA85BD01 PUSH1 0xE1 SHL EQ SWAP1 POP PUSH2 0x1DC9 JUMP JUMPDEST POP PUSH1 0x1 SWAP5 SWAP4 POP POP POP POP JUMP JUMPDEST PUSH2 0x2397 DUP4 DUP4 PUSH2 0x23C0 JUMP JUMPDEST PUSH2 0x23A4 PUSH1 0x0 DUP5 DUP5 DUP5 PUSH2 0x228F JUMP JUMPDEST PUSH2 0x859 JUMPI PUSH1 0x40 MLOAD PUSH3 0x461BCD PUSH1 0xE5 SHL DUP2 MSTORE PUSH1 0x4 ADD PUSH2 0x723 SWAP1 PUSH2 0x2FF6 JUMP JUMPDEST PUSH1 0x1 PUSH1 0x1 PUSH1 0xA0 SHL SUB DUP3 AND PUSH2 0x2416 JUMPI PUSH1 0x40 MLOAD PUSH3 0x461BCD PUSH1 0xE5 SHL DUP2 MSTORE PUSH1 0x20 PUSH1 0x4 DUP3 ADD DUP2 SWAP1 MSTORE PUSH1 0x24 DUP3 ADD MSTORE PUSH32 0x4552433732313A206D696E7420746F20746865207A65726F2061646472657373 PUSH1 0x44 DUP3 ADD MSTORE PUSH1 0x64 ADD PUSH2 0x723 JUMP JUMPDEST PUSH1 0x0 DUP2 DUP2 MSTORE PUSH1 0x2 PUSH1 0x20 MSTORE PUSH1 0x40 SWAP1 KECCAK256 SLOAD PUSH1 0x1 PUSH1 0x1 PUSH1 0xA0 SHL SUB AND ISZERO PUSH2 0x247B JUMPI PUSH1 0x40 MLOAD PUSH3 0x461BCD PUSH1 0xE5 SHL DUP2 MSTORE PUSH1 0x20 PUSH1 0x4 DUP3 ADD MSTORE PUSH1 0x1C PUSH1 0x24 DUP3 ADD MSTORE PUSH32 0x4552433732313A20746F6B656E20616C7265616479206D696E74656400000000 PUSH1 0x44 DUP3 ADD MSTORE PUSH1 0x64 ADD PUSH2 0x723 JUMP JUMPDEST PUSH1 0x1 PUSH1 0x1 PUSH1 0xA0 SHL SUB DUP3 AND PUSH1 0x0 SWAP1 DUP2 MSTORE PUSH1 0x3 PUSH1 0x20 MSTORE PUSH1 0x40 DUP2 KECCAK256 DUP1 SLOAD PUSH1 0x1 SWAP3 SWAP1 PUSH2 0x24A4 SWAP1 DUP5 SWAP1 PUSH2 0x2D91 JUMP JUMPDEST SWAP1 SWAP2 SSTORE POP POP PUSH1 0x0 DUP2 DUP2 MSTORE PUSH1 0x2 PUSH1 0x20 MSTORE PUSH1 0x40 DUP1 DUP3 KECCAK256 DUP1 SLOAD PUSH1 0x1 PUSH1 0x1 PUSH1 0xA0 SHL SUB NOT AND PUSH1 0x1 PUSH1 0x1 PUSH1 0xA0 SHL SUB DUP7 AND SWAP1 DUP2 OR SWAP1 SWAP2 SSTORE SWAP1 MLOAD DUP4 SWAP3 SWAP1 PUSH32 0xDDF252AD1BE2C89B69C2B068FC378DAA952BA7F163C4A11628F55A4DF523B3EF SWAP1 DUP3 SWAP1 LOG4 POP POP JUMP JUMPDEST DUP3 DUP1 SLOAD PUSH2 0x250E SWAP1 PUSH2 0x2CB0 JUMP JUMPDEST SWAP1 PUSH1 0x0 MSTORE PUSH1 0x20 PUSH1 0x0 KECCAK256 SWAP1 PUSH1 0x1F ADD PUSH1 0x20 SWAP1 DIV DUP2 ADD SWAP3 DUP3 PUSH2 0x2530 JUMPI PUSH1 0x0 DUP6 SSTORE PUSH2 0x2576 JUMP JUMPDEST DUP3 PUSH1 0x1F LT PUSH2 0x2549 JUMPI DUP1 MLOAD PUSH1 0xFF NOT AND DUP4 DUP1 ADD OR DUP6 SSTORE PUSH2 0x2576 JUMP JUMPDEST DUP3 DUP1 ADD PUSH1 0x1 ADD DUP6 SSTORE DUP3 ISZERO PUSH2 0x2576 JUMPI SWAP2 DUP3 ADD JUMPDEST DUP3 DUP2 GT ISZERO PUSH2 0x2576 JUMPI DUP3 MLOAD DUP3 SSTORE SWAP2 PUSH1 0x20 ADD SWAP2 SWAP1 PUSH1 0x1 ADD SWAP1 PUSH2 0x255B JUMP JUMPDEST POP PUSH2 0x2582 SWAP3 SWAP2 POP PUSH2 0x2586 JUMP JUMPDEST POP SWAP1 JUMP JUMPDEST JUMPDEST DUP1 DUP3 GT ISZERO PUSH2 0x2582 JUMPI PUSH1 0x0 DUP2 SSTORE PUSH1 0x1 ADD PUSH2 0x2587 JUMP JUMPDEST PUSH1 0x1 PUSH1 0x1 PUSH1 0xE0 SHL SUB NOT DUP2 AND DUP2 EQ PUSH2 0x25B1 JUMPI PUSH1 0x0 DUP1 REVERT JUMPDEST POP JUMP JUMPDEST PUSH1 0x0 PUSH1 0x20 DUP3 DUP5 SUB SLT ISZERO PUSH2 0x25C6 JUMPI PUSH1 0x0 DUP1 REVERT JUMPDEST DUP2 CALLDATALOAD PUSH2 0x1C56 DUP2 PUSH2 0x259B JUMP JUMPDEST PUSH1 0x0 JUMPDEST DUP4 DUP2 LT ISZERO PUSH2 0x25EC JUMPI DUP2 DUP2 ADD MLOAD DUP4 DUP3 ADD MSTORE PUSH1 0x20 ADD PUSH2 0x25D4 JUMP JUMPDEST DUP4 DUP2 GT ISZERO PUSH2 0x131A JUMPI POP POP PUSH1 0x0 SWAP2 ADD MSTORE JUMP JUMPDEST PUSH1 0x0 DUP2 MLOAD DUP1 DUP5 MSTORE PUSH2 0x2615 DUP2 PUSH1 0x20 DUP7 ADD PUSH1 0x20 DUP7 ADD PUSH2 0x25D1 JUMP JUMPDEST PUSH1 0x1F ADD PUSH1 0x1F NOT AND SWAP3 SWAP1 SWAP3 ADD PUSH1 0x20 ADD SWAP3 SWAP2 POP POP JUMP JUMPDEST PUSH1 0x20 DUP2 MSTORE PUSH1 0x0 DUP3 MLOAD PUSH1 0xA0 PUSH1 0x20 DUP5 ADD MSTORE PUSH2 0x2645 PUSH1 0xC0 DUP5 ADD DUP3 PUSH2 0x25FD JUMP JUMPDEST SWAP1 POP PUSH1 0x20 DUP5 ADD MLOAD PUSH1 0x1F NOT DUP5 DUP4 SUB ADD PUSH1 0x40 DUP6 ADD MSTORE PUSH2 0x2662 DUP3 DUP3 PUSH2 0x25FD JUMP JUMPDEST SWAP2 POP POP PUSH1 0x40 DUP5 ADD MLOAD PUSH1 0x60 DUP5 ADD MSTORE PUSH1 0x60 DUP5 ADD MLOAD PUSH1 0x80 DUP5 ADD MSTORE PUSH1 0x80 DUP5 ADD MLOAD PUSH1 0xA0 DUP5 ADD MSTORE DUP1 SWAP2 POP POP SWAP3 SWAP2 POP POP JUMP JUMPDEST PUSH1 0x20 DUP2 MSTORE PUSH1 0x0 PUSH2 0x1C56 PUSH1 0x20 DUP4 ADD DUP5 PUSH2 0x25FD JUMP JUMPDEST PUSH1 0x0 PUSH1 0x20 DUP3 DUP5 SUB SLT ISZERO PUSH2 0x26B2 JUMPI PUSH1 0x0 DUP1 REVERT JUMPDEST POP CALLDATALOAD SWAP2 SWAP1 POP JUMP JUMPDEST DUP1 CALLDATALOAD PUSH1 0x1 PUSH1 0x1 PUSH1 0xA0 SHL SUB DUP2 AND DUP2 EQ PUSH2 0x26D0 JUMPI PUSH1 0x0 DUP1 REVERT JUMPDEST SWAP2 SWAP1 POP JUMP JUMPDEST PUSH1 0x0 DUP1 PUSH1 0x40 DUP4 DUP6 SUB SLT ISZERO PUSH2 0x26E8 JUMPI PUSH1 0x0 DUP1 REVERT JUMPDEST PUSH2 0x26F1 DUP4 PUSH2 0x26B9 JUMP JUMPDEST SWAP5 PUSH1 0x20 SWAP4 SWAP1 SWAP4 ADD CALLDATALOAD SWAP4 POP POP POP JUMP JUMPDEST PUSH1 0x0 DUP1 PUSH1 0x0 PUSH1 0x60 DUP5 DUP7 SUB SLT ISZERO PUSH2 0x2714 JUMPI PUSH1 0x0 DUP1 REVERT JUMPDEST PUSH2 0x271D DUP5 PUSH2 0x26B9 JUMP JUMPDEST SWAP3 POP PUSH2 0x272B PUSH1 0x20 DUP6 ADD PUSH2 0x26B9 JUMP JUMPDEST SWAP2 POP PUSH1 0x40 DUP5 ADD CALLDATALOAD SWAP1 POP SWAP3 POP SWAP3 POP SWAP3 JUMP JUMPDEST PUSH4 0x4E487B71 PUSH1 0xE0 SHL PUSH1 0x0 MSTORE PUSH1 0x41 PUSH1 0x4 MSTORE PUSH1 0x24 PUSH1 0x0 REVERT JUMPDEST PUSH1 0x40 MLOAD PUSH1 0xC0 DUP2 ADD PUSH8 0xFFFFFFFFFFFFFFFF DUP2 GT DUP3 DUP3 LT OR ISZERO PUSH2 0x2774 JUMPI PUSH2 0x2774 PUSH2 0x273B JUMP JUMPDEST PUSH1 0x40 MSTORE SWAP1 JUMP JUMPDEST PUSH1 0x40 MLOAD PUSH1 0xA0 DUP2 ADD PUSH8 0xFFFFFFFFFFFFFFFF DUP2 GT DUP3 DUP3 LT OR ISZERO PUSH2 0x2774 JUMPI PUSH2 0x2774 PUSH2 0x273B JUMP JUMPDEST PUSH1 0x40 MLOAD PUSH1 0x1F DUP3 ADD PUSH1 0x1F NOT AND DUP2 ADD PUSH8 0xFFFFFFFFFFFFFFFF DUP2 GT DUP3 DUP3 LT OR ISZERO PUSH2 0x27C6 JUMPI PUSH2 0x27C6 PUSH2 0x273B JUMP JUMPDEST PUSH1 0x40 MSTORE SWAP2 SWAP1 POP JUMP JUMPDEST PUSH1 0x0 PUSH8 0xFFFFFFFFFFFFFFFF DUP4 GT ISZERO PUSH2 0x27E8 JUMPI PUSH2 0x27E8 PUSH2 0x273B JUMP JUMPDEST PUSH2 0x27FB PUSH1 0x1F DUP5 ADD PUSH1 0x1F NOT AND PUSH1 0x20 ADD PUSH2 0x279D JUMP JUMPDEST SWAP1 POP DUP3 DUP2 MSTORE DUP4 DUP4 DUP4 ADD GT ISZERO PUSH2 0x280F JUMPI PUSH1 0x0 DUP1 REVERT JUMPDEST DUP3 DUP3 PUSH1 0x20 DUP4 ADD CALLDATACOPY PUSH1 0x0 PUSH1 0x20 DUP5 DUP4 ADD ADD MSTORE SWAP4 SWAP3 POP POP POP JUMP JUMPDEST PUSH1 0x0 DUP3 PUSH1 0x1F DUP4 ADD SLT PUSH2 0x2837 JUMPI PUSH1 0x0 DUP1 REVERT JUMPDEST PUSH2 0x1C56 DUP4 DUP4 CALLDATALOAD PUSH1 0x20 DUP6 ADD PUSH2 0x27CE JUMP JUMPDEST PUSH1 0x0 PUSH1 0x20 DUP1 DUP4 DUP6 SUB SLT ISZERO PUSH2 0x2859 JUMPI PUSH1 0x0 DUP1 REVERT JUMPDEST DUP3 CALLDATALOAD PUSH8 0xFFFFFFFFFFFFFFFF DUP1 DUP3 GT ISZERO PUSH2 0x2871 JUMPI PUSH1 0x0 DUP1 REVERT JUMPDEST DUP2 DUP6 ADD SWAP2 POP DUP6 PUSH1 0x1F DUP4 ADD SLT PUSH2 0x2885 JUMPI PUSH1 0x0 DUP1 REVERT JUMPDEST DUP2 CALLDATALOAD DUP2 DUP2 GT ISZERO PUSH2 0x2897 JUMPI PUSH2 0x2897 PUSH2 0x273B JUMP JUMPDEST DUP1 PUSH1 0x5 SHL PUSH2 0x28A6 DUP6 DUP3 ADD PUSH2 0x279D JUMP JUMPDEST SWAP2 DUP3 MSTORE DUP4 DUP2 ADD DUP6 ADD SWAP2 DUP6 DUP2 ADD SWAP1 DUP10 DUP5 GT ISZERO PUSH2 0x28C0 JUMPI PUSH1 0x0 DUP1 REVERT JUMPDEST DUP7 DUP7 ADD SWAP3 POP JUMPDEST DUP4 DUP4 LT ISZERO PUSH2 0x2986 JUMPI DUP3 CALLDATALOAD DUP6 DUP2 GT ISZERO PUSH2 0x28DD JUMPI PUSH1 0x0 DUP1 REVERT JUMPDEST DUP7 ADD PUSH1 0xC0 DUP2 DUP13 SUB PUSH1 0x1F NOT ADD SLT ISZERO PUSH2 0x28F4 JUMPI PUSH1 0x0 DUP1 DUP2 REVERT JUMPDEST PUSH2 0x28FC PUSH2 0x2751 JUMP JUMPDEST DUP9 DUP3 ADD CALLDATALOAD DUP2 MSTORE PUSH1 0x40 DUP1 DUP4 ADD CALLDATALOAD DUP9 DUP2 GT ISZERO PUSH2 0x2916 JUMPI PUSH1 0x0 DUP1 DUP2 REVERT JUMPDEST PUSH2 0x2924 DUP15 DUP13 DUP4 DUP8 ADD ADD PUSH2 0x2826 JUMP JUMPDEST DUP12 DUP5 ADD MSTORE POP PUSH1 0x60 DUP1 DUP5 ADD CALLDATALOAD DUP10 DUP2 GT ISZERO PUSH2 0x293D JUMPI PUSH1 0x0 DUP1 DUP2 REVERT JUMPDEST PUSH2 0x294B DUP16 DUP14 DUP4 DUP9 ADD ADD PUSH2 0x2826 JUMP JUMPDEST DUP4 DUP6 ADD MSTORE POP PUSH1 0x80 SWAP2 POP DUP2 DUP5 ADD CALLDATALOAD DUP2 DUP5 ADD MSTORE POP PUSH1 0xA0 DUP1 DUP5 ADD CALLDATALOAD DUP3 DUP5 ADD MSTORE PUSH1 0xC0 DUP5 ADD CALLDATALOAD DUP2 DUP5 ADD MSTORE POP POP DUP1 DUP5 MSTORE POP POP DUP7 DUP3 ADD SWAP2 POP DUP7 DUP4 ADD SWAP3 POP PUSH2 0x28C6 JUMP JUMPDEST SWAP10 SWAP9 POP POP POP POP POP POP POP POP POP JUMP JUMPDEST PUSH1 0x0 PUSH1 0x20 DUP3 DUP5 SUB SLT ISZERO PUSH2 0x29A5 JUMPI PUSH1 0x0 DUP1 REVERT JUMPDEST PUSH2 0x1C56 DUP3 PUSH2 0x26B9 JUMP JUMPDEST DUP1 MLOAD DUP3 MSTORE PUSH1 0x0 PUSH1 0x20 DUP3 ADD MLOAD PUSH1 0xC0 PUSH1 0x20 DUP6 ADD MSTORE PUSH2 0x29CD PUSH1 0xC0 DUP6 ADD DUP3 PUSH2 0x25FD JUMP JUMPDEST SWAP1 POP PUSH1 0x40 DUP4 ADD MLOAD DUP5 DUP3 SUB PUSH1 0x40 DUP7 ADD MSTORE PUSH2 0x29E6 DUP3 DUP3 PUSH2 0x25FD JUMP JUMPDEST SWAP2 POP POP PUSH1 0x60 DUP4 ADD MLOAD PUSH1 0x60 DUP6 ADD MSTORE PUSH1 0x80 DUP4 ADD MLOAD PUSH1 0x80 DUP6 ADD MSTORE PUSH1 0xA0 DUP4 ADD MLOAD PUSH1 0xA0 DUP6 ADD MSTORE DUP1 SWAP2 POP POP SWAP3 SWAP2 POP POP JUMP JUMPDEST PUSH1 0x0 PUSH1 0x20 DUP1 DUP4 ADD DUP2 DUP5 MSTORE DUP1 DUP6 MLOAD DUP1 DUP4 MSTORE PUSH1 0x40 DUP7 ADD SWAP2 POP PUSH1 0x40 DUP2 PUSH1 0x5 SHL DUP8 ADD ADD SWAP3 POP DUP4 DUP8 ADD PUSH1 0x0 JUMPDEST DUP3 DUP2 LT ISZERO PUSH2 0x2A66 JUMPI PUSH1 0x3F NOT DUP9 DUP7 SUB ADD DUP5 MSTORE PUSH2 0x2A54 DUP6 DUP4 MLOAD PUSH2 0x29AE JUMP JUMPDEST SWAP5 POP SWAP3 DUP6 ADD SWAP3 SWAP1 DUP6 ADD SWAP1 PUSH1 0x1 ADD PUSH2 0x2A38 JUMP JUMPDEST POP SWAP3 SWAP8 SWAP7 POP POP POP POP POP POP POP JUMP JUMPDEST PUSH1 0x0 PUSH1 0x20 DUP3 DUP5 SUB SLT ISZERO PUSH2 0x2A85 JUMPI PUSH1 0x0 DUP1 REVERT JUMPDEST DUP2 CALLDATALOAD PUSH8 0xFFFFFFFFFFFFFFFF DUP1 DUP3 GT ISZERO PUSH2 0x2A9D JUMPI PUSH1 0x0 DUP1 REVERT JUMPDEST SWAP1 DUP4 ADD SWAP1 PUSH1 0xA0 DUP3 DUP7 SUB SLT ISZERO PUSH2 0x2AB1 JUMPI PUSH1 0x0 DUP1 REVERT JUMPDEST PUSH2 0x2AB9 PUSH2 0x277A JUMP JUMPDEST DUP3 CALLDATALOAD DUP3 DUP2 GT ISZERO PUSH2 0x2AC8 JUMPI PUSH1 0x0 DUP1 REVERT JUMPDEST PUSH2 0x2AD4 DUP8 DUP3 DUP7 ADD PUSH2 0x2826 JUMP JUMPDEST DUP3 MSTORE POP PUSH1 0x20 DUP4 ADD CALLDATALOAD DUP3 DUP2 GT ISZERO PUSH2 0x2AE9 JUMPI PUSH1 0x0 DUP1 REVERT JUMPDEST PUSH2 0x2AF5 DUP8 DUP3 DUP7 ADD PUSH2 0x2826 JUMP JUMPDEST PUSH1 0x20 DUP4 ADD MSTORE POP PUSH1 0x40 DUP4 ADD CALLDATALOAD PUSH1 0x40 DUP3 ADD MSTORE PUSH1 0x60 DUP4 ADD CALLDATALOAD PUSH1 0x60 DUP3 ADD MSTORE PUSH1 0x80 DUP4 ADD CALLDATALOAD PUSH1 0x80 DUP3 ADD MSTORE DUP1 SWAP4 POP POP POP POP SWAP3 SWAP2 POP POP JUMP JUMPDEST DUP7 DUP2 MSTORE PUSH1 0xC0 PUSH1 0x20 DUP3 ADD MSTORE PUSH1 0x0 PUSH2 0x2B3E PUSH1 0xC0 DUP4 ADD DUP9 PUSH2 0x25FD JUMP JUMPDEST DUP3 DUP2 SUB PUSH1 0x40 DUP5 ADD MSTORE PUSH2 0x2B50 DUP2 DUP9 PUSH2 0x25FD JUMP JUMPDEST PUSH1 0x60 DUP5 ADD SWAP7 SWAP1 SWAP7 MSTORE POP POP PUSH1 0x80 DUP2 ADD SWAP3 SWAP1 SWAP3 MSTORE PUSH1 0xA0 SWAP1 SWAP2 ADD MSTORE SWAP4 SWAP3 POP POP POP JUMP JUMPDEST PUSH1 0x0 DUP1 PUSH1 0x40 DUP4 DUP6 SUB SLT ISZERO PUSH2 0x2B82 JUMPI PUSH1 0x0 DUP1 REVERT JUMPDEST PUSH2 0x2B8B DUP4 PUSH2 0x26B9 JUMP JUMPDEST SWAP2 POP PUSH1 0x20 DUP4 ADD CALLDATALOAD DUP1 ISZERO ISZERO DUP2 EQ PUSH2 0x2BA0 JUMPI PUSH1 0x0 DUP1 REVERT JUMPDEST DUP1 SWAP2 POP POP SWAP3 POP SWAP3 SWAP1 POP JUMP JUMPDEST PUSH1 0xA0 DUP2 MSTORE PUSH1 0x0 PUSH2 0x2BBE PUSH1 0xA0 DUP4 ADD DUP9 PUSH2 0x25FD JUMP JUMPDEST DUP3 DUP2 SUB PUSH1 0x20 DUP5 ADD MSTORE PUSH2 0x2BD0 DUP2 DUP9 PUSH2 0x25FD JUMP JUMPDEST PUSH1 0x40 DUP5 ADD SWAP7 SWAP1 SWAP7 MSTORE POP POP PUSH1 0x60 DUP2 ADD SWAP3 SWAP1 SWAP3 MSTORE PUSH1 0x80 SWAP1 SWAP2 ADD MSTORE SWAP3 SWAP2 POP POP JUMP JUMPDEST PUSH1 0x0 DUP1 PUSH1 0x0 DUP1 PUSH1 0x80 DUP6 DUP8 SUB SLT ISZERO PUSH2 0x2C04 JUMPI PUSH1 0x0 DUP1 REVERT JUMPDEST PUSH2 0x2C0D DUP6 PUSH2 0x26B9 JUMP JUMPDEST SWAP4 POP PUSH2 0x2C1B PUSH1 0x20 DUP7 ADD PUSH2 0x26B9 JUMP JUMPDEST SWAP3 POP PUSH1 0x40 DUP6 ADD CALLDATALOAD SWAP2 POP PUSH1 0x60 DUP6 ADD CALLDATALOAD PUSH8 0xFFFFFFFFFFFFFFFF DUP2 GT ISZERO PUSH2 0x2C3E JUMPI PUSH1 0x0 DUP1 REVERT JUMPDEST DUP6 ADD PUSH1 0x1F DUP2 ADD DUP8 SGT PUSH2 0x2C4F JUMPI PUSH1 0x0 DUP1 REVERT JUMPDEST PUSH2 0x2C5E DUP8 DUP3 CALLDATALOAD PUSH1 0x20 DUP5 ADD PUSH2 0x27CE JUMP JUMPDEST SWAP2 POP POP SWAP3 SWAP6 SWAP2 SWAP5 POP SWAP3 POP JUMP JUMPDEST PUSH1 0x0 DUP1 PUSH1 0x40 DUP4 DUP6 SUB SLT ISZERO PUSH2 0x2C7D JUMPI PUSH1 0x0 DUP1 REVERT JUMPDEST PUSH2 0x2C86 DUP4 PUSH2 0x26B9 JUMP JUMPDEST SWAP2 POP PUSH2 0x2C94 PUSH1 0x20 DUP5 ADD PUSH2 0x26B9 JUMP JUMPDEST SWAP1 POP SWAP3 POP SWAP3 SWAP1 POP JUMP JUMPDEST PUSH1 0x20 DUP2 MSTORE PUSH1 0x0 PUSH2 0x1C56 PUSH1 0x20 DUP4 ADD DUP5 PUSH2 0x29AE JUMP JUMPDEST PUSH1 0x1 DUP2 DUP2 SHR SWAP1 DUP3 AND DUP1 PUSH2 0x2CC4 JUMPI PUSH1 0x7F DUP3 AND SWAP2 POP JUMPDEST PUSH1 0x20 DUP3 LT DUP2 EQ ISZERO PUSH2 0x1C5D JUMPI PUSH4 0x4E487B71 PUSH1 0xE0 SHL PUSH1 0x0 MSTORE PUSH1 0x22 PUSH1 0x4 MSTORE PUSH1 0x24 PUSH1 0x0 REVERT JUMPDEST PUSH1 0x20 DUP1 DUP3 MSTORE PUSH1 0x31 SWAP1 DUP3 ADD MSTORE PUSH32 0x4552433732313A207472616E736665722063616C6C6572206973206E6F74206F PUSH1 0x40 DUP3 ADD MSTORE PUSH17 0x1DDB995C881B9BDC88185C1C1C9BDD9959 PUSH1 0x7A SHL PUSH1 0x60 DUP3 ADD MSTORE PUSH1 0x80 ADD SWAP1 JUMP JUMPDEST PUSH1 0x20 DUP1 DUP3 MSTORE PUSH1 0x15 SWAP1 DUP3 ADD MSTORE PUSH21 0x2CB7BA9030B932903737BA103A34329037BBB732B9 PUSH1 0x59 SHL PUSH1 0x40 DUP3 ADD MSTORE PUSH1 0x60 ADD SWAP1 JUMP JUMPDEST PUSH4 0x4E487B71 PUSH1 0xE0 SHL PUSH1 0x0 MSTORE PUSH1 0x32 PUSH1 0x4 MSTORE PUSH1 0x24 PUSH1 0x0 REVERT JUMPDEST PUSH4 0x4E487B71 PUSH1 0xE0 SHL PUSH1 0x0 MSTORE PUSH1 0x11 PUSH1 0x4 MSTORE PUSH1 0x24 PUSH1 0x0 REVERT JUMPDEST PUSH1 0x0 DUP3 NOT DUP3 GT ISZERO PUSH2 0x2DA4 JUMPI PUSH2 0x2DA4 PUSH2 0x2D7B JUMP JUMPDEST POP ADD SWAP1 JUMP JUMPDEST PUSH4 0x4E487B71 PUSH1 0xE0 SHL PUSH1 0x0 MSTORE PUSH1 0x12 PUSH1 0x4 MSTORE PUSH1 0x24 PUSH1 0x0 REVERT JUMPDEST PUSH1 0x0 DUP3 PUSH2 0x2DCE JUMPI PUSH2 0x2DCE PUSH2 0x2DA9 JUMP JUMPDEST POP DIV SWAP1 JUMP JUMPDEST PUSH1 0x0 DUP2 PUSH1 0x0 NOT DIV DUP4 GT DUP3 ISZERO ISZERO AND ISZERO PUSH2 0x2DED JUMPI PUSH2 0x2DED PUSH2 0x2D7B JUMP JUMPDEST POP MUL SWAP1 JUMP JUMPDEST PUSH1 0x0 DUP2 MLOAD PUSH2 0x2E04 DUP2 DUP6 PUSH1 0x20 DUP7 ADD PUSH2 0x25D1 JUMP JUMPDEST SWAP3 SWAP1 SWAP3 ADD SWAP3 SWAP2 POP POP JUMP JUMPDEST PUSH10 0x3D913730B6B2911D1011 PUSH1 0xB1 SHL DUP2 MSTORE DUP7 MLOAD PUSH1 0x0 SWAP1 PUSH2 0x2E34 DUP2 PUSH1 0xA DUP6 ADD PUSH1 0x20 DUP13 ADD PUSH2 0x25D1 JUMP JUMPDEST PUSH11 0x1016969027232A10119D1 PUSH1 0xAD SHL PUSH1 0xA SWAP2 DUP5 ADD SWAP2 DUP3 ADD MSTORE DUP8 MLOAD PUSH2 0x2E5F DUP2 PUSH1 0x15 DUP5 ADD PUSH1 0x20 DUP13 ADD PUSH2 0x25D1 JUMP JUMPDEST PUSH32 0x222C20226465736372697074696F6E223A2022416E2065706963204E4654222C PUSH1 0x15 SWAP3 SWAP1 SWAP2 ADD SWAP2 DUP3 ADD MSTORE PUSH18 0x2022696D616765223A2022697066733A2F2F PUSH1 0x70 SHL PUSH1 0x35 DUP3 ADD MSTORE DUP7 MLOAD PUSH2 0x2EB8 DUP2 PUSH1 0x47 DUP5 ADD PUSH1 0x20 DUP12 ADD PUSH2 0x25D1 JUMP JUMPDEST PUSH32 0x222C202261747472696275746573223A205B207B202274726169745F74797065 PUSH1 0x47 SWAP3 SWAP1 SWAP2 ADD SWAP2 DUP3 ADD MSTORE PUSH32 0x223A20224865616C746820506F696E7473222C202276616C7565223A20000000 PUSH1 0x67 DUP3 ADD MSTORE PUSH2 0x2986 PUSH2 0x2F8A PUSH2 0x2F84 PUSH2 0x2F45 PUSH2 0x2F3F PUSH2 0x2F25 PUSH1 0x84 DUP8 ADD DUP13 PUSH2 0x2DF2 JUMP JUMPDEST PUSH14 0x16101136B0BC2FBB30B63AB2911D PUSH1 0x91 SHL DUP2 MSTORE PUSH1 0xE ADD SWAP1 JUMP JUMPDEST DUP10 PUSH2 0x2DF2 JUMP JUMPDEST PUSH32 0x7D2C207B202274726169745F74797065223A202241747461636B2044616D6167 DUP2 MSTORE PUSH13 0x32911610113B30B63AB2911D1 PUSH1 0x9D SHL PUSH1 0x20 DUP3 ADD MSTORE PUSH1 0x2D ADD SWAP1 JUMP JUMPDEST DUP7 PUSH2 0x2DF2 JUMP JUMPDEST PUSH4 0x7D205D7D PUSH1 0xE0 SHL DUP2 MSTORE PUSH1 0x4 ADD SWAP1 JUMP JUMPDEST PUSH32 0x646174613A6170706C69636174696F6E2F6A736F6E3B6261736536342C000000 DUP2 MSTORE PUSH1 0x0 DUP3 MLOAD PUSH2 0x2FD2 DUP2 PUSH1 0x1D DUP6 ADD PUSH1 0x20 DUP8 ADD PUSH2 0x25D1 JUMP JUMPDEST SWAP2 SWAP1 SWAP2 ADD PUSH1 0x1D ADD SWAP3 SWAP2 POP POP JUMP JUMPDEST PUSH1 0x0 DUP3 DUP3 LT ISZERO PUSH2 0x2FF1 JUMPI PUSH2 0x2FF1 PUSH2 0x2D7B JUMP JUMPDEST POP SUB SWAP1 JUMP JUMPDEST PUSH1 0x20 DUP1 DUP3 MSTORE PUSH1 0x32 SWAP1 DUP3 ADD MSTORE PUSH32 0x4552433732313A207472616E7366657220746F206E6F6E204552433732315265 PUSH1 0x40 DUP3 ADD MSTORE PUSH18 0x31B2B4BB32B91034B6B83632B6B2B73A32B9 PUSH1 0x71 SHL PUSH1 0x60 DUP3 ADD MSTORE PUSH1 0x80 ADD SWAP1 JUMP JUMPDEST PUSH1 0x0 PUSH1 0x0 NOT DUP3 EQ ISZERO PUSH2 0x305C JUMPI PUSH2 0x305C PUSH2 0x2D7B JUMP JUMPDEST POP PUSH1 0x1 ADD SWAP1 JUMP JUMPDEST PUSH1 0x0 DUP3 PUSH2 0x3072 JUMPI PUSH2 0x3072 PUSH2 0x2DA9 JUMP JUMPDEST POP MOD SWAP1 JUMP JUMPDEST PUSH1 0x1 PUSH1 0x1 PUSH1 0xA0 SHL SUB DUP6 DUP2 AND DUP3 MSTORE DUP5 AND PUSH1 0x20 DUP3 ADD MSTORE PUSH1 0x40 DUP2 ADD DUP4 SWAP1 MSTORE PUSH1 0x80 PUSH1 0x60 DUP3 ADD DUP2 SWAP1 MSTORE PUSH1 0x0 SWAP1 PUSH2 0x30AA SWAP1 DUP4 ADD DUP5 PUSH2 0x25FD JUMP JUMPDEST SWAP7 SWAP6 POP POP POP POP POP POP JUMP JUMPDEST PUSH1 0x0 PUSH1 0x20 DUP3 DUP5 SUB SLT ISZERO PUSH2 0x30C6 JUMPI PUSH1 0x0 DUP1 REVERT JUMPDEST DUP2 MLOAD PUSH2 0x1C56 DUP2 PUSH2 0x259B JUMP INVALID COINBASE TIMESTAMP NUMBER DIFFICULTY GASLIMIT CHAINID SELFBALANCE BASEFEE 0x49 0x4A 0x4B 0x4C 0x4D 0x4E 0x4F POP MLOAD MSTORE MSTORE8 SLOAD SSTORE JUMP JUMPI PC MSIZE GAS PUSH2 0x6263 PUSH5 0x6566676869 PUSH11 0x6B6C6D6E6F707172737475 PUSH23 0x7778797A303132333435363738392B2FA2646970667358 0x22 SLT KECCAK256 SWAP10 0xAD EXP 0xC SWAP4 0xE7 0xC6 0xC SWAP6 0x1E SWAP2 0xC6 XOR PUSH10 0x1CD35090A881CF7AA76A SLT 0xB2 0xB9 XOR 0xD9 BASEFEE COINBASE SWAP8 PUSH5 0x736F6C6343 STOP ADDMOD SIGNEXTEND STOP CALLER ",
  "sha1": "8622d8037773c285a8c43440df09138af9ca8dee",
  "source": "// SPDX-License-Identifier: MIT\npragma solidity ^0.8.0;\n\nimport './libraries/Base64.sol';\nimport '@openzeppelin/contracts/token/ERC721/ERC721.sol';\nimport '@openzeppelin/contracts/utils/Counters.sol';\nimport '@openzeppelin/contracts/utils/Counters.sol';\nimport '@chainlink/contracts/src/v0.8/VRFConsumerBase.sol';\n\ncontract EpicGame is ERC721 {\n  // The tokenId is the NFTs unique identifier, it's just a number that goes 1, 2, 3, ...\n  using Counters for Counters.Counter;\n  Counters.Counter private _tokenIds;\n\n  address public owner;\n  BigBoss public bigBoss;\n  struct BigBoss {\n    string name;\n    string imageURI;\n    uint256 hp;\n    uint256 maxHp;\n    uint256 attackDamage;\n  }\n\n  struct CharacterAttributes {\n    uint256 characterIndex;\n    string name;\n    string imageURI;\n    uint256 hp;\n    uint256 maxHp;\n    uint256 attackDamage;\n  }\n\n  // uint256 public critChance;\n\n  // For VRFCoordinator\n  bytes32 internal keyHash;\n  uint256 internal oracleFee;\n\n  // A lil array to help us hold the default data for our characters.\n  // This will be helpful when we mint new characters and need to know\n  // things like their HP, AD, etc.\n  CharacterAttributes[] defaultCharacters;\n\n  //  nft's tokenId => that NFTs attributes.\n  mapping(uint256 => CharacterAttributes) public nftHolderAttributes;\n\n  // A mapping from an address => the NFTs tokenId. Gives me an ez way\n  // to store the owner of the NFT and reference it later.\n  mapping(address => uint256) public nftHolders;\n\n  event CharacterNFTMinted(address sender, uint256 tokenId, uint256 characterIndex);\n  event AttackComplete(uint256 newBossHp, uint256 newPlayerHp, uint256 damage, uint8 critChance);\n  event ReviveComplete(address sender, uint256 newPlayerHp);\n\n  constructor() ERC721('Pokemon', 'POKEMON') {\n    owner = msg.sender;\n    _tokenIds.increment(); // just make it starts at 1 instead of 0\n  }\n\n  modifier onlyOwner() {\n    require(msg.sender == owner, 'You are not the owner');\n    _;\n  }\n\n  function initBoss(BigBoss memory boss) public onlyOwner {\n    bigBoss = BigBoss({\n      name: boss.name,\n      imageURI: boss.imageURI,\n      hp: boss.hp,\n      maxHp: boss.maxHp,\n      attackDamage: boss.attackDamage\n    });\n  }\n\n  function initDefaultCharacters(CharacterAttributes[] memory characters) public onlyOwner {\n    for (uint256 i = 0; i < characters.length; i += 1) {\n      defaultCharacters.push(\n        CharacterAttributes({\n          characterIndex: characters[i].characterIndex,\n          name: characters[i].name,\n          imageURI: characters[i].imageURI,\n          hp: characters[i].hp,\n          maxHp: characters[i].maxHp,\n          attackDamage: characters[i].attackDamage\n        })\n      );\n    }\n  }\n\n  modifier onlyPlayer() {\n    require(isUserHasNFT(msg.sender) == true, \"You're not the player!\");\n    _;\n  }\n\n  function isUserHasNFT(address _user) public view returns (bool) {\n    uint256 tokenId = nftHolders[_user];\n    if (tokenId > 0) {\n      return true;\n    }\n    return false;\n  }\n\n  // Users would be able to hit this function and get their NFT based on the\n  // characterId they send in!\n  function mintCharacterNFT(uint256 _characterIndex) external {\n    require(isUserHasNFT(msg.sender) == false, 'User already has a NFT');\n    uint256 newItemId = _tokenIds.current();\n    _safeMint(msg.sender, newItemId);\n\n    nftHolderAttributes[newItemId] = CharacterAttributes({\n      characterIndex: _characterIndex,\n      name: defaultCharacters[_characterIndex].name,\n      imageURI: defaultCharacters[_characterIndex].imageURI,\n      hp: defaultCharacters[_characterIndex].hp,\n      maxHp: defaultCharacters[_characterIndex].maxHp,\n      attackDamage: defaultCharacters[_characterIndex].attackDamage\n    });\n\n    // Keep an easy way to see who owns what NFT.\n    nftHolders[msg.sender] = newItemId;\n\n    emit CharacterNFTMinted(msg.sender, newItemId, _characterIndex);\n\n    // Increment the tokenId for the next person that uses it.\n    _tokenIds.increment();\n  }\n\n  function tokenURI(uint256 _tokenId) public view override returns (string memory) {\n    CharacterAttributes memory charAttributes = nftHolderAttributes[_tokenId];\n    string memory strHp = Strings.toString(charAttributes.hp);\n    string memory strMaxHp = Strings.toString(charAttributes.maxHp);\n    string memory strAttackDamage = Strings.toString(charAttributes.attackDamage);\n\n    string memory json = Base64.encode(\n      bytes(\n        string(\n          abi.encodePacked(\n            '{\"name\": \"',\n            charAttributes.name,\n            ' -- NFT #: ',\n            Strings.toString(_tokenId),\n            '\", \"description\": \"An epic NFT\", \"image\": \"ipfs://',\n            charAttributes.imageURI,\n            '\", \"attributes\": [ { \"trait_type\": \"Health Points\", \"value\": ',\n            strHp,\n            ', \"max_value\":',\n            strMaxHp,\n            '}, { \"trait_type\": \"Attack Damage\", \"value\": ',\n            strAttackDamage,\n            '} ]}'\n          )\n        )\n      )\n    );\n\n    string memory output = string(abi.encodePacked('data:application/json;base64,', json));\n    return output;\n  }\n\n  function attackBoss() public onlyPlayer {\n    // Get the state of the player's NFT.\n    uint256 tokenId = nftHolders[msg.sender];\n    CharacterAttributes storage player = nftHolderAttributes[tokenId];\n    require(player.hp > 0, 'player has no HP left');\n    require(bigBoss.hp > 0, 'Big Boss is already dead');\n\n    // calculate critical damage\n    (uint256 damage, uint8 critChance) = calculateCriticalDamage(player.attackDamage);\n\n    // Allow player to attack boss with critable damage\n    if (bigBoss.hp < damage) {\n      bigBoss.hp = 0;\n    } else {\n      bigBoss.hp = bigBoss.hp - damage;\n    }\n\n    // Allow boss to attack player.\n    if (player.hp < bigBoss.attackDamage) {\n      player.hp = 0;\n    } else {\n      player.hp = player.hp - bigBoss.attackDamage;\n    }\n\n    emit AttackComplete(bigBoss.hp, player.hp, damage, critChance);\n  }\n\n  function calculateCriticalDamage(uint256 _damage) internal view returns (uint256, uint8) {\n    uint8 critChance = uint8(random() % 10);\n    uint256 damage = _damage;\n    if (critChance >= 8) {\n      damage = _damage * 3;\n    } else if (critChance >= 5 && critChance <= 7) {\n      damage = _damage * 2;\n    }\n    return (damage, critChance);\n  }\n\n  // revive dead NFT with half of its maxHP\n  function revive() public onlyPlayer {\n    uint256 tokenId = nftHolders[msg.sender];\n    CharacterAttributes storage player = nftHolderAttributes[tokenId];\n    require(player.hp == 0, 'Cannot revive an alive NFT');\n    player.hp = player.maxHp / 2;\n    emit ReviveComplete(msg.sender, player.hp);\n  }\n\n  // revive and level up boss\n  function reviveBigBoss() public onlyOwner {\n    require(bigBoss.hp == 0, 'Cannot revive an alive Boss');\n    bigBoss.hp = bigBoss.maxHp / 2;\n    bigBoss.attackDamage = bigBoss.attackDamage * 2;\n  }\n\n  function getUserNFT(address _user) public view returns (CharacterAttributes memory) {\n    uint256 tokenId = nftHolders[_user];\n    if (tokenId > 0) {\n      return nftHolderAttributes[tokenId];\n    } else {\n      CharacterAttributes memory emptyStruct;\n      return emptyStruct;\n    }\n  }\n\n  function getDefaultCharacters() public view returns (CharacterAttributes[] memory) {\n    return defaultCharacters;\n  }\n\n  function getBigBoss() public view returns (BigBoss memory) {\n    return bigBoss;\n  }\n\n  function random() public view returns (uint256) {\n    return uint256(keccak256(abi.encodePacked(block.difficulty, block.timestamp)));\n  }\n}\n",
  "sourcePath": "contracts/EpicGame.sol",
  "type": "contract"
}